:020000040800F2
:10000000E0040020192A0008F1280008F32800085D
:1000100000000000000000000000000000000000E0
:10002000000000000000000000000000F7280008A9
:100030000000000000000000F9280008FB2800086C
:10004000CF27000800000000AB290008B7290008EE
:10005000452A000803290008472A0008492A000801
:10006000000000004B2A00084D2A00084F2A000813
:100070000D290008512A0008532A0008000000003A
:10008000552A00080000000000000000572A000860
:1000900000000000592A00085B2A00085D2A0008B9
:1000A00000000000E9020008000000005F2A0008CC
:1000B00000B5010049B2002905D40121C206D20EC3
:1000C0009140994A116000BDF0B5020052B2002A79
:1000D0001CD40322954B040064B2A40804256C438D
:1000E0001C59FF251600064008277E43B540AC4347
:1000F0008D01EDB20240082672439540254302006F
:1001000052B29208042462439D5022E00F24884A90
:10011000032305006DB22540083DAD080426754354
:10012000060076B23440083CA408042674431659ED
:10013000FF27BC461C00044008277C436746A740B5
:10014000BE438C01E4B2034008277B439C40344308
:100150005451F0BD016840220A4302607047426872
:1001600010239A430A4342607047026801239A436E
:100170000A4302607047026802239A430A430260FE
:10018000704742686B4B13400B43436070474168B4
:100190000822914341607047416840220A4342600F
:1001A0007047C068C0B270470173704781B0624940
:1001B0000A6802430A60096801400091009901B091
:1001C000704781B05D490A6802430A6009680140CE
:1001D0000091009901B0704710B504002000C0B232
:1001E000002801D0002200E00122D2B202215448AE
:1001F00000F0E6FC10BD10B504002000C0B20028DD
:1002000001D0002200E00122D2B208219020C005D6
:1002100000F0D6FC10BD10B504002000C0B20028CC
:1002200001D0002200E00122D2B204219020C005BA
:1002300000F0C6FC10BDF7B582B01F0001250024F8
:10024000404E20003070029800280ED06846007B97
:1002500000280AD00A2000906846037B9BB2029ACD
:100260002221394800F043FD050030780028FCD0F9
:100270000498002825D03800C0B2002821D02800DA
:10028000C0B200281DD1304E0A2000903B00DBB2E6
:100290009BB2049A2321300000F0E4FD0500280001
:1002A000C0B203280DD1300000F098FE002808D11C
:1002B0003068406A04993A00D2B28918491E087021
:1002C00025002800C0B205B0F0BD10B50400012023
:1002D000FFF782FFFEE700B5010089B2012902D1D4
:1002E0000121184A117000BD38B510219020C005B9
:1002F00000F059FC002808D11448FFF752FFC84904
:1003000008700020124908600DE0114C2068032895
:1003100009D225680D48FFF744FFC14949194870C3
:100320002068401C206031BD00E100E000E400E0F6
:100330001CED00E0FFEFFFFF141002401810024018
:1003400000140048D80000201C00002000300140AC
:10035000C8000020F8B500F081FF00F07FF900F040
:10036000A9FA00F0B6F900F009FA00F03BFA002112
:10037000AC48FFF700FF0021AA48FFF7F6FEA948A6
:10038000FFF7E8FEA748FFF707FFFF21A548FFF7A3
:100390000BFF0020FFF73FFF642000F06FFFA24C2F
:1003A000200000F081FF200001F0C7F80020FFF7D7
:1003B00013FF012000F062FF9C4E01233200032155
:1003C0009B48FFF738FF9B490870FA20400000F077
:1003D00055FF0123320005219748FFF72CFF95496F
:1003E00008700123320001219448FFF724FF91494E
:1003F000087030788128F4D1082332000221904817
:10040000FFF719FF8B4908700123320006218D4840
:10041000FFF711FF874908700A2000F02FFF72B61E
:10042000894C7F48006820608848006888490860D7
:1004300062B620782A2813D100207949087000205C
:10044000FFF7E9FE834D774F29783800FFF7ACFEC0
:1004500069783800FFF7A8FEA9783800FFF7A4FEF6
:100460007B48006803287BD1002528006C49087070
:100470002078292833D1A078002830D1E0781328BB
:100480002DD16078A72816D0AF2828D1724829002E
:100490000170B84902780B789A420BD00078087046
:1004A000B5487F214171012332000621FFF7C3FEC9
:1004B0006049087013E0684801210170AD49027875
:1004C0000B789A420BD000780870AB480E2141712E
:1004D000012332000621FFF7AEFE5649087020784E
:1004E000282834D1E0783B2831D1B84F6078A17802
:1004F000090240183860B64839680268914226D02F
:1005000039680160386832214843B24940180A21ED
:1005100001F048FA386048483968090A817039683A
:10052000C170012332000521FFF785FE41490870A3
:100530000020FFF760FE0020FFF76DFE2800A649AF
:100540000870A648057001F085FAA5490860207872
:10055000282805D1E0783F2802D10120FFF75BFE73
:100560009D4C2078002822D101F074FA0A2101F074
:1005700019FA00291BD12F4D0123320001212F48E8
:10058000FFF759FE28703078C00710D50120207081
:100590000823320002212A48FFF74DFE28707078A8
:1005A0008007800F012802D10120FFF724FE207868
:1005B00000280DD0894C2078002809D101F04AFA92
:1005C00087490968401AB949884201D3012020703F
:1005D000824C2078002818D001F03CFA962149007E
:1005E00001F0E0F9002910D1082332000221B048BF
:1005F000FFF721FE0F490870F078812801DB012008
:1006000000E00020C0B2FFF706FE2078002801D0ED
:1006100001F020FA0121002001F022FAFFE600009B
:10062000C40000200030014068000020A800002025
:100630003C2A0008DA00002000000020602A0008A0
:100640007E270008342A0008CC000020C8000020C3
:10065000D0000020402A00081900002038B594B0CE
:100660003022002108A801F00DFA1022002168466E
:1006700001F008FA1022002104A801F003FA122068
:10068000089001200B900D9010240C940E940025DE
:10069000109508A801F000FA002801D000F086F9B2
:1006A000072000900195029503950021684601F00E
:1006B00053FC002801D000F079F920200490079421
:1006C00004A801F037FD002801D000F06FF915B043
:1006D00030BD70B588B00C220021684601F0D2F917
:1006E0001422002103A801F0CDF9A54CA5482060F3
:1006F00000256560A560E560012626610420606133
:1007000028002076280060763000A0762800E07669
:10071000FF20C230E0612562280024216054A562D8
:10072000200000F02BFE002801D000F03FF90095DA
:10073000802040010190052002906946200000F0D1
:10074000BCFF002801D000F031F9C0200004039064
:10075000049503A806728C4806909620C000079066
:1007600003A9200001F055F8002801D000F01EF97F
:1007700008B070BD1A0000200800002010B5834C9E
:1007800083482060834860600020A0600121E16010
:1007900020616061A061E0612062200000F044FA05
:1007A000002801D000F002F90021200001F05AFDDC
:1007B000002801D000F0FAF80021200001F085FDAA
:1007C000002801D000F0F2F810BD0000B8000020B1
:1007D000BC00002066D6FFFF18000020D9000020D2
:1007E000C0000020F8B590B02822002106A801F032
:1007F00049F918220021684601F044F9802040019F
:10080000FFF7DFFC80208002FFF7D0FC2020009063
:10081000022401940326029600250395049505956C
:1008200069469020C00501F0E2FD4020009001944F
:10083000029603950495059569469020C00501F040
:10084000D6FD80270097019402960395049505959F
:1008500069469020C00501F0CAFD01211920FFF76B
:1008600033FC1920FFF724FC06950795E020C00013
:100870000890099401200A90802080000B900D9729
:100880000E9507200F90444C06A9200001F0FCFDB6
:1008900000212000FFF763FC2000FFF778FC802197
:1008A00049012000FFF76DFC11B0F0BDE903000025
:1008B000521A0008F8B586B014220021684601F0EB
:1008C000E1F88021C903354802680A4302600268E2
:1008D0001140059105998021890202680A4302604E
:1008E00002681140059105998021C90202680A43F6
:1008F0000260006801400591059800220221284805
:1009000000F05EF99027FF0500220C21380000F06E
:1009100057F9012600962348019000240294694665
:100920001F4800F045F802250095019602940394B3
:1009300069461B4800F03CF80C2000900196029498
:1009400003946946380000F033F8102000900194B9
:1009500002946946380000F02BF800950195029446
:10096000039404956946104800F022F80022032100
:10097000052001F02EFE052001F035FE07B0F0BD88
:1009800068000020002401401C0C00001C00002016
:10099000005400400B0200000030014014100240DF
:1009A00000140048000011100004004800B5FEE7E4
:1009B000FCB5020000240868E040002800D1F1E006
:1009C000012508682E00A6400640019601980028DF
:1009D00000D1E5E04868022802D0486812281FD1FB
:1009E000E008042670431018076A072000970F26B6
:1009F000B44627000740042677436646BE40009F62
:100A0000B743BC460E692700384004277843864028
:100A100067463E433300E008042670431018036223
:100A200017680326BC462700022047433000B84021
:100A30006746874300974F683740BC46200002272F
:100A40007843674687400098074317604868012845
:100A500008D04868022805D04868112802D04868A4
:100A6000122820D193689C46230002204343300083
:100A70009840634683430093C8688446230002205D
:100A8000434360469840009B184300900098906054
:100A900053682800A0408343486800092840A040CC
:100AA000184307005760D3689C4623000220434345
:100AB000300098406346834300938B689C46200037
:100AC000022358436346834000980343D360486839
:100AD000C00065D54A4807682F4307600068284072
:100AE0000090009847488446A70804204743604682
:100AF000C05900900F27BC4627003000384004271B
:100B00007843674687400098B8439027FF05BA426C
:100B100001D100250DE03C4B9A420AD03B4B9A4252
:100B200001D1022505E03A4B9A4201D1350000E09F
:100B3000052523001E4004235E43B540054331488C
:100B4000A30804267343C550324B1868019EB04376
:100B50004E68F60302D505000198284318602E4D13
:100B60002B68019EB3434E68B60302D51800019B63
:100B700003432B60294D2868019EB0434E68F6025E
:100B800002D50300019818432860254D2B68019E6B
:100B9000B3434E68B60202D51800019B03432B6095
:100BA000641C08E7F3BD00B5020010690B009BB29E
:100BB0001840002801D0012000E00020C0B200BD94
:100BC00000B51300DBB2002B03D00B009BB2836196
:100BD00002E00B009BB2836200BD10B50400114817
:100BE0000168220092B21140002906D0210089B28A
:100BF0000160200080B2FFF76EFB10BD0000000016
:100C00001810024008000140000400480008004895
:100C1000000C0048000401400404014008040140A5
:100C20000C0401401404014010B50400002C01D153
:100C300001205BE04120205C002805D100204021FC
:100C40006054200001F033FD2420412160542068CD
:100C50000068012188432168086060687E4901407E
:100C6000206801617D48216889680140226891609F
:100C7000E168012906D1A168802212020A43216895
:100C80008A6005E0A168842212020A4321688A6012
:100C9000E168022903D1802109012268516021689D
:100CA00049686F4A0A4321684A602168C968084058
:100CB0002168C860206961690143A0690002084396
:100CC0002168C860E069216A0143206801602068EA
:100CD0000068012101432068016000206064202138
:100CE0004122A154206342216054002010BDFEB572
:100CF00004000F004120205C202800D0A8E0402004
:100D0000205C012801D10220A3E001204021605491
:100D100000F0A0FE0600009619230122802109029E
:100D2000200000F071F9002801D0012091E021207D
:100D300041216054102042216054002565640198CF
:100D400060626846008960856563608DFF280DD903
:100D5000FF2020859D48009080235B04228DD2B225
:100D6000390089B2200000F05EFA0CE0608D208529
:100D70009648009080239B04228DD2B2390089B21C
:100D8000200000F050FA608D002846D0320008990B
:100D9000200000F065F9002801D0012059E0606AC8
:100DA000007821688862606A401C60628848618DB2
:100DB00009186185218D08182085608D0028E2D0F2
:100DC000208D0028DFD10096089B00228021200082
:100DD00000F01AF9002801D001203AE0608DFF28C8
:100DE0000DD9FF2020850020009080235B04228DF8
:100DF000D2B2390089B2200000F015FAC3E7608D45
:100E000020850020009080239B04228DD2B23900DF
:100E100089B2200000F007FAB5E7320008992000F7
:100E200000F04AF9002801D0012012E020202168BA
:100E3000C86121684968674A0A4021684A604121BF
:100E4000605428004221605440202554002000E0D6
:100E50000220FEBD00000000FFFFFFF0FF7FFFFF4C
:100E600000800002FEB504000F004120205C202815
:100E700000D0A8E04020205C012801D10220A3E09E
:100E800001204021605400F0E5FD06000096192382
:100E9000012280210902200000F0B6F8002801D0CC
:100EA000012091E022204121605410204221605411
:100EB0000025656401986062684600896085656305
:100EC000608DFF280DD9FF202085434800908023A6
:100ED0005B04228DD2B2390089B2200000F0A3F960
:100EE0000CE0608D20853C48009080239B04228D7F
:100EF000D2B2390089B2200000F095F9608D002847
:100F000046D032000899200000F0FFF8002801D0F8
:100F1000012059E02068406A616A0870606A401CDC
:100F200060622B48218D09182185618D0818608524
:100F3000608D0028E2D0208D0028DFD10096089B2C
:100F400000228021200000F05FF8002801D001205D
:100F50003AE0608DFF280DD9FF2020850020009009
:100F600080235B04228DD2B2390089B2200000F0C8
:100F70005AF9C3E7608D20850020009080239B04F0
:100F8000228DD2B2390089B2200000F04CF9B5E7C9
:100F900032000899200000F08FF8002801D00120CD
:100FA00012E020202168C86121684968094A0A4086
:100FB00021684A6041216054280042216054402049
:100FC0002554002000E00220FEBD0000002000802B
:100FD000FFFF000000E800FE00240080406C704726
:100FE00000B501688969890702D50021026891620C
:100FF0000121026892690A40002A04D102689269BC
:1010000011430268916100BDF4B504000F001D009A
:10101000069E206880693840B84201D1012000E076
:10102000002069460978884218D10020C0438542D3
:10103000EFD000F00FFD801B854201D3002DE8D1D9
:101040002020616C01436164412160540020010053
:101050004222A15440216054012000E00020F2BD52
:1010600070B504000D00160020688069800721D447
:1010700032002900200000F091F8002801D0012062
:1010800019E00020C0438542EED000F0E3FC801B55
:10109000854201D3002DE7D12020616C01436164BA
:1010A00041216054002001004222A154402160549B
:1010B000012000E0002070BDF8B505000E0017000B
:1010C000202428688069204000281CD13A00310083
:1010D000280000F063F8002801D0012014E000F09F
:1010E000B9FCC01B864201D3002EE9D1686C2043B5
:1010F000686441202C54002001004222A954402160
:101100006854012000E00020F2BDF4B504000F0097
:10111000042520688069284000283DD1009A3900C4
:10112000200000F03BF8002801D0012035E0202607
:1011300020688069304000281CD020688069054004
:10114000002D04D0208D002801D0002025E020684B
:10115000C661206840683F49014020684160002026
:1011600060644121665401004222A1544021605430
:10117000012012E000F06EFC0099401A874201D372
:10118000002FC5D1606C304360644120265400209C
:1011900040216054012000E00020F2BDF4B50400BD
:1011A0000F001025206880692840002839D02026AB
:1011B000206880693040002818D10020C043874251
:1011C000F5D000F047FC0099401A874201D3002F68
:1011D000EDD1606C30436064412026540020010052
:1011E0004222A1544021605401201BE02068C561C7
:1011F0002068C6612000FFF7F3FE206840681549AB
:10120000014020684160606C042101436164412019
:101210002654002001004222A154402160540120A4
:1012200000E00020F2BDF0B4049C05686D68660D16
:10123000094F3743BD430E00B6B2B605B60D2E4377
:101240001500EDB22D0435431D4325430668756036
:10125000F0BC704700E800FEFF63FF0380B506485E
:10126000016810220A430260032001F05DFA01F0D8
:10127000D3F9002002BD00000020024070B5040038
:1012800000F0E8FB050026000020C043864202D0A3
:1012900004480078361800F0DDFB401BB042FAD35A
:1012A00070BD00BF1B000020FEB5040000252F000C
:1012B000019500953420205C012801D102205AE0DC
:1012C00001263000342160540320216889680140E0
:1012D00001290AD1216809683140002903D1216818
:1012E000C968090401D5310000E02900002939D17D
:1012F000A16B214A0A4002211143A1632168C968F8
:10130000084000902068C068032188432168C860B5
:10131000206880688021090601432068816000F010
:1013200099FB01902068806800280FD500F092FB9F
:101330000199401A0328F5D3A06B0221884310219C
:101340000143A16334202554012014E02068C068C3
:10135000009901432068C160A06B022188430643C5
:10136000A66304E0A06B20210143A1633700342071
:1013700025543800C0B2FEBDFFFEFFFFF8B50400E3
:1013800000252F002E00002C01D10120D4E0A06BFD
:10139000002806D1E563280034216054200001F0C4
:1013A00051F91020A16B0140002900D0BDE03900A7
:1013B000C9B2002900D0B8E0042221688968114030
:1013C000002900D0B1E0A36B7749194002230B43F9
:1013D000A363216889688907890F01290AD101213E
:1013E00023681B680B40002B03D12368DB681B04B8
:1013F00000D500E0290000290FD12168C968182311
:101400009943A3680B432168CB60216809698B006D
:101410009B0861681943236819612168CB68634997
:1014200019402368D960A16A012902D080214901AD
:1014300000E029002369022B00D02A00B446237E55
:101440009E03637EDB033343A67E76031E43314354
:10145000E3680B431A432421615C4E001643614646
:101460000E43E17E01290FD1A17E002904D1310074
:10147000802676020E4307E0A16B20220A43A26376
:10148000E16B01220A43E263E169FF22C232914229
:1014900004D03200E169266A0E4316432168C96808
:1014A00031432268D160E16A80225205914214D012
:1014B000E16A012911D0E16A02290ED0E16A03290B
:1014C0000BD0E16A042908D0E16A052905D0E16A58
:1014D000062902D0E16A07290ED12168496907224D
:1014E000914322685161216849692C22A25C52070C
:1014F000520F0A4321684A612168C9682C4A0A4090
:10150000B24207D1E563A06B022188430121014368
:10151000A1630FE0A16B022291430843A063012065
:10152000E16B0143E163070004E0A16B0843A063A2
:10153000012007003800C0B2F2BDF8B50400002554
:101540002F000426206880683040002826D13420EF
:10155000205C012801D1022024E0012034216054C4
:10156000607E012803D0200000F0BAF9070038009F
:10157000C0B2002814D1A06B0E4901408020400069
:101580000843A063E563342025541C2021680860CB
:101590002068806806432068866001E0022007001A
:1015A0003800C0B2F2BD0000FFFEFFFF1902FEFFCF
:1015B000E7FF3F83FEF1FFFF38B5040004202168F8
:1015C00009680140002904D02168496801400029C8
:1015D0000AD10821226812680A40002A3AD02268FB
:1015E00052681140002935D0A16BC90604D4A16B03
:1015F000802292000A43A2632168C968C0221201B6
:101600000A40002A20D1A17E00291DD12168096845
:10161000090719D521688968084000280CD120687D
:1016200040680C21884321684860A06BAB490140A9
:1016300001200843A06307E0A06B20210143A163C0
:10164000E06B01210143E163200001F095F80C20DB
:1016500021680860802520680068284000280ED096
:10166000206840682840002809D0A06B80214902EA
:101670000143A1632000FEF728FE206805601025C5
:10168000206800682840002816D02068406828405C
:10169000002811D0A06A012803D02068C068C007C4
:1016A00008D5E06B02210143E1632068056020005A
:1016B00001F063F82068056031BDF8B504000D0045
:1016C00000273E00009780214905E06A884213D038
:1016D000E06A012810D0E06A02280DD0E06A0328F1
:1016E0000AD0E06A042807D0E06A052804D0E06A3E
:1016F000062801D0E06A07283420205C012801D1A7
:10170000022085E0012210003423E0542068806824
:10171000400774D468689C4B984256D02068806A11
:101720002B689A40024320688262E06A884228D08F
:10173000E06A012825D0E06A022822D0E06A032866
:101740001FD0E06A04281CD0E06A052819D0E06A9E
:10175000062816D0E06A072813D00720A968226857
:101760005269024091420CD0216849690722914395
:101770002268516121684969AA68104008432168BC
:1017800048612868102802D0286811283CD12868B0
:10179000102802D18020000401E08020C0037B4992
:1017A0000A6810430860286810282DD1784800681E
:1017B000784900F0F7F80A21484300900098002883
:1017C00022D00098401E0090F8E72068806A2968BF
:1017D0008A409043216888622868102802D02868CF
:1017E000112811D12868102802D18021090401E0B4
:1017F0008021C903654802688A43026004E0A06B47
:1018000020210143A1631600342027543000C0B2C8
:10181000F2BDF8B50300002004000D68C0263604B0
:10182000B54234255D5D012D01D1022054E0012532
:1018300034269D551E68B668760744D41D68ED6849
:10184000554E2E401D68EE601D68ED680E684F68AD
:10185000BF0637432F431D68EF600325CE68B446AB
:101860001E68F668F7082F40022677436646BE409A
:1018700000960E691F68FF68FF083D4002277D4300
:10188000AE4032001D682D6A444E2E401D682E6207
:101890001D682D6A009E360416432E431D682E6275
:1018A00080251E6835600E7A012E05D11E68766887
:1018B00035431E6875600BE01D686D688026B54372
:1018C0001E68756004E09E6B202737439F632C00E1
:1018D000342558552000C0B2F2BD0000FFFEFFFFC6
:1018E0007CB5040000200600009021688968890703
:1018F000890F01290BD10121226812680A40002AB0
:1019000003D12268D268120401D50800FFE700283D
:1019100038D12068806822490140002909D0A06B95
:1019200010210143A163E06B01210143E163012028
:1019300029E00125206880682843216888601448D0
:101940000068144900F02EF800900098002803D099
:101950000098401E0090F8E700F07CF80600206830
:101960000068284000280DD100F074F8801B03287F
:10197000F5D3A06B10210143A163E06B0543E56340
:10198000012000E0002076BD011000000827014082
:101990001400002040420F00FFFF3F8300F000F0E2
:1019A000170000800022030A8B420BD203098B42EE
:1019B00019D243088B422ED2411A00D2014652411D
:1019C00010467047FF2209023FD012068B4205D312
:1019D000121209028B4201D31212090203098B422F
:1019E00019D300E0090AC3098B4201D3CB01C01A05
:1019F000524183098B4201D38B01C01A52414309E2
:101A00008B4201D34B01C01A524103098B4201D3CF
:101A10000B01C01A5241C3088B4201D3CB00C01A3C
:101A2000524183088B4201D38B00C01A52414308B4
:101A30008B4201D34B00C01A5241884200D3401A56
:101A40005241CFD201461046704708B500F096FECD
:101A500008BD230001480068704700BFD400002083
:101A600010B5074A13680424A34313600A00D2B2D6
:101A7000012A01D130BF02E040BF20BF20BF10BD0E
:101A800010ED00E010B50400080011000200200075
:101A900000F076FE200010BDF8B584B00400002CE4
:101AA00001D101204AE22078C00766D50C20B44954
:101AB0000A680240042A09D00A68104008280ED19A
:101AC0008020400209680140814208D1AD48006889
:101AD000800352D5606800284FD101202EE2606853
:101AE000012806D1A7480168802252020A430260F9
:101AF00024E06068002809D1A2480168A24A0A408F
:101B000002600168A14A0A40026017E06068052887
:101B10000BD19C4801688022D2020A43026001680E
:101B2000802252020A43026008E096480168964A01
:101B30000A4002600168954A0A4002606068002815
:101B40000DD0FFF787FF05008E480068800314D48E
:101B5000FFF780FF401B6528F6D30320EEE1FFF777
:101B600079FF050087480068800306D5FFF772FFFC
:101B7000401B6528F6D30320E0E1022620683040B0
:101B800000284FD00C207E490A680240002A06D067
:101B90000A681040082814D10868C00311D4794895
:101BA00001683140002904D0E168012901D00120F9
:101BB000C4E10168F82291432269D2000A4302601D
:101BC00030E0E06800281AD06E4F386801210143E8
:101BD0003960FFF73FFF050038683040002806D124
:101BE000FFF738FF401B0328F6D30320A6E138682F
:101BF000F82188432169C9000143396012E0614F2F
:101C00003868012188433860FFF724FF05003868F1
:101C10003040002806D0FFF71DFF401B0328F6D3F5
:101C200003208BE12078000728D5E069002812D036
:101C3000C34F3868012101433960FFF70BFF0500EE
:101C400038683040002819D1FFF704FF401B0328F3
:101C5000F6D3032072E1BA4F386801218843386017
:101C6000FFF7F8FE050038683040002806D0FFF77F
:101C7000F1FE401B0328F6D303205FE10427206810
:101C80003840002800D18CE0002069460870802090
:101C90004005AC490968014000290AD1A9490A68F0
:101CA00002430A60096808400390039801206946CE
:101CB0000870A5480068C00514D4A34800688021B6
:101CC00049000143A0480160FFF7C4FE05009E489B
:101CD0000068C00506D4FFF7BDFE401B6528F6D39B
:101CE00003202BE1A068012805D198480168012252
:101CF0000A43026021E0A068002809D193480168E6
:101D0000012291430160016804229143016014E0C3
:101D1000A068052808D18D48016839430160016831
:101D200001220A43026008E08848016801229143C9
:101D300001600168042291430160A06800280FD06F
:101D4000FFF788FE050081480068304000281FD159
:101D5000FFF780FE401B7E498842F4D30320EDE06C
:101D6000FFF778FE050079480068304000280FD062
:101D7000FFF770FE401B76498842F4D30320DDE074
:101D80000410024000100240FFFFFEFFFFFFFBFFB8
:101D900068460078012804D16A4801686D4A0A4003
:101DA00002602078C00650D56069012822D1B4486D
:101DB00000680743B2480760B14800680121014349
:101DC000AF480160FFF746FE0500AD4800683040AF
:101DD000002806D1FFF73EFE401B0328F5D3032061
:101DE000ACE0A7480168F8229143A269D2000A43F7
:101DF00002602AE00421C943606988420BD1A048EF
:101E00000268114001600168F8229143A269D20082
:101E10000A43026019E09A4800680743984807603F
:101E2000974800680121884395490860FFF712FE32
:101E30000500934800683040002806D0FFF70AFEEE
:101E4000401B0328F5D3032078E0206A002874D0D3
:101E50008C4800680C21014008294DD0206A0228D6
:101E600038D1894F3868894901403960FFF7F2FD60
:101E700000908026B60438683040002807D0FFF76D
:101E8000E9FD0099401A0328F3D3032056E09E4849
:101E900001680F229143E26A0A43026079480168AF
:101EA0007B4A0A40A16A1143626A0A4302603868A9
:101EB0008021490401433960FFF7CCFD05003868F3
:101EC0003040002839D1FFF7C5FD401B0328F6D369
:101ED000032033E06C4E30686C4901403160FFF7FD
:101EE000B9FD05003068800127D5FFF7B3FD401B21
:101EF0000328F7D3032021E0206A012801D1012023
:101F00001CE06048006801907F48006802900198DA
:101F1000802149020840616A88420CD1029800077A
:101F2000000FE16A884206D10198F021890301403F
:101F3000A06A814201D0012000E0002005B0F0BD80
:101F4000241002401C10024000700040201002408B
:101F500089130000FFFFFFEFF3B581B00400002CF0
:101F600001D101208BE00125684E3068284002999C
:101F700088420CD2306801218843029901433160C4
:101F8000306828400299884201D0012077E0022081
:101F90002168014000290FD02178490705D539492A
:101FA0000A68E023DB0013430B6036490A68F0231C
:101FB0009A43A36813430B6021682940002932D05B
:101FC0006168012905D130480068800311D40120DF
:101FD00055E06168022905D12B480068800108D4CA
:101FE00001204CE0284909680840002801D101205F
:101FF00045E0244F38680321884361680143396014
:10200000FFF728FD009038680C21014060688000CF
:10201000814208D0FFF71EFD0099401A3C498842D2
:10202000F1D303202BE002983168294088420CD27A
:1020300030680121884302990143316030680540CE
:102040000298854201D0012019E02078400706D58A
:102050000C4801682F4A0A40E1681143016000F012
:1020600019F82D49074A126812091207120F895CE4
:10207000C8402A490860032000F056FB0020FEBD3E
:10208000341002400410024000100240FFFFFFFE27
:10209000FFFFC2FFF0B589B005A82149102200F06A
:1020A00097FB01A81F49102200F092FB002420009A
:1020B0000094250026001C490F680C213940042992
:1020C00002D0082902D01BE018481AE00F2005A909
:1020D000BA0C0240895C0E0001A90B4A126810403C
:1020E000085C0090F80306D510480099FFF75AFCE9
:1020F0007043050002E00E4870430500280000E030
:102100000A4809B0F0BD00002C1002400020024037
:1021100089130000FFF8FFFF082A000814000020C0
:10212000E8290008F82900080410024000127A008B
:1021300000093D00F8B584B007000020029001902E
:102140008024640239682140002964D069460870FF
:10215000802040053B4D29680140002909D12968AC
:1021600001432960296808400390039801206946CB
:102170000870354E3068C00512D43068802149009F
:1021800001433160FFF766FC02903068C00507D458
:10219000FFF760FC0299401A6528F6D303204FE050
:1021A000C0208000294E3168014001910199002929
:1021B00023D001997A68104081421ED030682449AA
:1021C0000140019130680443346030682149014086
:1021D0003160019830600198C0070ED5FFF73AFCD6
:1021E00002903068800708D4FFF734FC0299401A47
:1021F00019498842F5D3032022E030681449014090
:1022000078680843306068460078012803D1286860
:102210001249014029603878C00706D51048016886
:1022200003229143BA680A4302603878800606D5D3
:102230000B48016810229143FA680A4302600020AB
:1022400005B0F0BD1C10024000700040201002409C
:10225000FFFCFFFFFFFFFEFF89130000FFFFFFEF02
:102260003010024010B502004120105C20282AD115
:102270004020105C012801D1022025E0012003004C
:102280004024135524234124135513681B6801244B
:10229000A3431468236013681B68244C1C40136814
:1022A0001C6013681B680B431468236013681B6869
:1022B00018431368186020204123D0540020402385
:1022C000D054002000E0022010BD10B502004120D3
:1022D000105C202827D14020105C012801D1022069
:1022E00022E00120030040241355242341241355E8
:1022F00013681B680124A3431468236013681B68D8
:102300000B4C1C400B0223431468236014682468A0
:1023100020431468206020204124105500204024D0
:102320001055002000E0022010BD0000FFEFFFFF6D
:10233000FFF0FFFF30B403680C004C4303256C43EF
:10234000A3430C004C4354431C43046030BC70470F
:1023500010B443688B430C0054431C43446010BCCE
:10236000704730B483680C004C4303256C43A3438F
:102370000C004C4354431C43846030BC704730B461
:10238000C3680C004C4303256C43A3430C004C432F
:1023900054431C43C46030BC704730B4036A0C0023
:1023A0004C434C434C430F256C43A3430C004C431C
:1023B0004C434C4354431C43046230BC704730B41C
:1023C000446A0B0A0D0A6B430D0A6B430D0A6B43FB
:1023D0000F256B439C430B0A0D0A6B430D0A6B439D
:1023E0000D0A6B4353432343436230BC7047F8B537
:1023F00006000C0000252068E84000282DD0206849
:102400000121A94001400F00002F24D0626839004B
:102410003000FFF78FFF6068012802D06068022853
:1024200004D1A26839003000FFF79BFF2269390010
:102430003000FFF7A4FF606802280CD1FF2F05D8F9
:10244000626939003000FFF7A8FF04E062693900D3
:102450003000FFF7B4FF6D1CCDE76068012802D0A3
:102460006068022804D1E26821683000FFF770FF3D
:102470000020F2BD006881090800C007C00F704746
:102480000A0092B20261704770B504000D00012687
:102490002000FFF7EFFF002827D1206815490140F1
:1024A0002868084369680143E868084329690143CB
:1024B00068690843A9690143E8690843296A014337
:1024C000216060680C490140A86808436969090CEB
:1024D00001436160286A80218901884203D1696AC9
:1024E0002000FFF7CDFF002006003000C0B270BD15
:1024F000000000004000FFFFFBF0FFFF00B50100FF
:1025000049B2002905D40121C206D20E91403C4AAD
:10251000116000BDF0B5020052B2002A1CD40322A3
:10252000384B040064B2A40804256C431C59FF25F1
:102530001600064008277E43B540AC438D01EDB23E
:1025400002400826724395402543020052B2920889
:10255000042462439D5022E00F242B4A03230500EC
:102560006DB22540083DAD0804267543060076B2DD
:102570003440083CA408042674431659FF27BC467F
:102580001C00044008277C436746A740BE438C01DB
:10259000E4B2034008277B439C4034435451F0BDD0
:1025A00010B50400601E80214904884201D3012037
:1025B0000EE0601E1549086003210020C043FFF7AC
:1025C000A9FF002012490860072012490860002076
:1025D00010BD70B505000C0016002100280040B2A7
:1025E000FFF798FF70BD10B50400200040B2FFF760
:1025F00085FF10BD10B504002000FFF7D1FF10BD0E
:1026000000E100E000E400E01CED00E014E000E088
:1026100018E000E010E000E081B001203D490A68C8
:1026200002430A6009680840009000988020400535
:1026300039490A6802430A60096808400090009816
:1026400001B0704710B586B004001422002101A823
:10265000FFF718FA20683149884226D1802080008F
:102660002C490A6802430A600968084000900098F3
:10267000802080022A490A6802430A6009680840EB
:102680000090009801200190032002900020039008
:1026900001A99020C005FEF78BF9002200210C2033
:1026A000FFF797FF0C20FFF79EFF06B010BD10B597
:1026B00086B004001422002101A8FFF7E3F9206886
:1026C0001849884223D18020800215490A680243B4
:1026D0000A600968084000900098C020C00001907E
:1026E0001220029001200390032004900420059002
:1026F00001A99020C005FEF75BF980208003064900
:102700000A6802430A60096808400090009806B011
:1027100010BD0000181002401C10024000240140AF
:10272000141002400054004010B50400FA2080004C
:102730000E490978FFF736F901000D480068FFF7E8
:1027400031F9FFF757FF002801D001200CE0042CDD
:1027500009D2002221000020C043FFF73AFF0548BC
:102760000460002000E0012010BD00BF1B0000201D
:1027700014000020100000207047704770472201AD
:102780001206130A1A43130C1A4300BF094205D05C
:10279000830705D00270401C491EF9D17047000024
:1027A0001300103906D330B41400150010393CC0A2
:1027B000FCD230BC490700D30CC000D504C089004E
:1027C00002D30280801C002900D502707047FEE70A
:1027D00070B4103A03D378C9103A78C0FBD25307CB
:1027E00001D318C918C001D508C908C0D20704D33D
:1027F0000B880380891C801C002A01D50B7803708C
:1028000070BC70471448016801220A4302601349F2
:102810000A68134B13400B600268124B13400360AD
:102820000268114B134003600868104A02400A60B6
:102830000F4801680F22914301600E4801680E4A5B
:102840000A4002600D4801680122914301600020A6
:102850000B4908607047000000100240041002405D
:102860000CB8FF08FFFFF6FEFFFFFBFFFFFFC0FFF6
:102870002C10024030100240ECFEFFFF34100240EA
:102880000810024070B40123002413E00168001D09
:10289000194202D04D466D1E49190C60091D121FC8
:1028A000042AFAD20D00960701D50C80AD1C1A40FF
:1028B00000D02C700268001D002AE7D170BC704760
:1028C00030B401220EE00368C31844680830144293
:1028D00002D04D466D1E64191D6825601B1D241D08
:1028E000091FF9D10168001D0029ECD130BC7047E7
:1028F000704700B5FEE77047704780B500F00EF8EE
:1029000001BD80B50120FEF768F901BD80B5024820
:10291000FEF752FE01BD0000680000200348016878
:10292000034A127889180160704700BFD400002064
:102930001B00002010B5074979441831064C7C442F
:10294000163404E0081D0A68891888470100A1426E
:10295000F8D110BD080000002800000029FFFFFF8B
:10296000C00000001C0000200000000055FFFFFF19
:102970001C000000580000000000002000000000C3
:1029800000F00DF8002801D0FFF7D4FF00BF00BF12
:10299000002000BF00BFFDF7DDFC00F002F80120C1
:1029A000704780B500F002F801BDFEE707463846E3
:1029B00000F002F8FBE7FEE780B500BF00BF024A67
:1029C00011001820ABBEFBE7260002002000297C86
:1029D0000000000012001805000E000004000000B6
:1029E00000127A000101010102030405060708092B
:1029F0000A0B0C0D0E0F1010010203040506070848
:102A0000090A0B0C0D0E0F10000000000000000062
:102A100001020304060708090148804701480047EE
:102A200005280008292A000800BF00BF00BF00BF1A
:102A3000FFF7A6FF120011000001000001D0050001
:102A400058668100FEE7FEE7FEE7FEE7FEE7FEE7E9
:102A5000FEE7FEE7FEE7FEE7FEE7FEE7FEE7FEE74E
:012A60001461
:0400000508002A299C
:00000001FF
