:020000040800F2
:1000000050070020D94D0008F14C0008F34C0008BF
:1000100000000000000000000000000000000000E0
:10002000000000000000000000000000FB4C000881
:100030000000000000000000FD4C0008FF4C00081C
:100040000B3900080000000007470008FB480008C3
:100050002F490008174C00083F4C0008EF4C0008DF
:1000600000000000A34D0008AF4D0008074D000838
:10007000F54D0008F74D0008F94D0008000000009C
:10008000FB4D00080000000000000000FD4D0008CE
:1000900000000000FF4D0008014E0008034E00085C
:1000A000000000003919000800000000054E00089B
:1000B000F0003838D080F0003840D08043B2384368
:1000C000D080F0007000C2F7F0003874D08080FC5F
:1000D0003917D080C238201140B79FA7391CD28071
:1000E0009FA73926D280F000392DD080F00039301A
:1000F000D08090413952DD80F0003A29D080F00064
:100100003956D080F0003A2BD080C4A20216600489
:10011000F00039C3D080F00039EBD080900139581D
:10012000D080F00038F9D080F000395FD280F00044
:100130003963D0804384396DD080F0003970D0802D
:10014000F0003974D0809E3018F9D280F000397AEE
:10015000D080F000397DD080307739E2D080F00057
:100160003980D08032003982D080F0003984D0804C
:10017000F00039CBD080F00039F9D080A8013A17CF
:10018000D080F0003A36D080F0003A3DD080F000C8
:100190003A3FD080F0003A53D080F0003A56D080F9
:1001A000F0003A59D080F0003A5CD080F000700046
:1001B000F000F0003A61D080F0003A22D280F000E6
:1001C0003A6FD08000433A7ED980F0003A88D080E0
:1001D000F0003ADED080F0003AE1D080F0003AF250
:1001E000D0802E403B90D080F0003B9AD080F00031
:1001F0000E3F6000501028D8D28091010136600077
:10020000F0007000A018F0007000A0D8F00070009E
:10021000A0F9F0007000A1B5F0007000A209F00094
:100220007000A234F0007000A24CF0002031D080A9
:10023000F00004C16008F0000101D280F00000303D
:10024000D080007F6002E200F0000E22600AF00021
:1002500000FF6003F0000142D28090034002F000F2
:1002600090430170D180F0000169D0800E69600A6E
:10027000A352202300016001F0007000F000C4CB05
:100280007000F000CA093023F000C2CB7000F0000B
:10029000F0003023D00882000D506008F0000D51AE
:1002A0006009300021806001F0004032F000301120
:1002B00045F3F00030922D30600431132D4060057D
:1002C00031947FFF600632150D61600A32960D6B26
:1002D000600B33100D50600133900D5C60023021D3
:1002E0000D63600330310D75600C30A28D0060012C
:1002F00030B30173600230410025600330C24044D6
:10030000F00031434035F00031C4640060063245EE
:100310001F40600732C67000F00033471EBC600DFE
:1003200033C0012260013440FDEE600230517B8F0A
:10033000600330D2C429600431511EC2600E3253B2
:10034000FF0D600232D47D2E60033061C19A6004DB
:1003500030E27000F00031617000F0003263700034
:10036000F00032E47000D008F0000370D280F0009A
:100370007000A002F0007000A059F0000215D080BB
:10038000F0000D51600FF0000517600E23F67000AD
:10039000F000F000216341F5918F21F84074C3EF24
:1003A00021E0F000C3A433F7F000D85B7000F00048
:1003B00082187000F0009FAF1800F0009F0F31F816
:1003C0009002F00070009028F0007000D008F0005B
:1003D0002278F00016D36009A07F35F01EBC600DB6
:1003E000F0000D616008F00003A5D280F0001EC28D
:1003F000600DF0000D6B6008F00003A5D280F000E6
:100400002100F000836D22F1F000F0002377F0006E
:1004100090413670F0009E7970009001F00032F14A
:10042000D00891C73375F000F0003470E600F0009A
:1004300034F0E600F0002474F000F00024F3F00043
:100440008C2426F240168A1B34744FF582B734F39D
:10045000F000F0002071900583047000F0008E67BA
:100460007000F000F00070009002F00036F6F0002E
:10047000F00034F0800682AF7000F000821B700044
:10048000D0098E5F7000F000F0007000D009F0001D
:1004900036F5F000F0003470F00040112772A2F53C
:1004A000908A20F3A2F48ED73772F000F00037F173
:1004B000E600F0007000D008F000227AF00016C3C9
:1004C0006009A058F0001820F000F0003570F0002E
:1004D000F000327AD00882000D51600840037000AD
:1004E000F00033807000F00021067000F00037004B
:1004F0007000F00037804015F00036837000F00087
:1005000033050D61600932860D6B600A3210700090
:10051000F00032907000F00033107000F000339063
:100520007000F00034107000F00034907000F000A3
:1005300031107000F00031907000F0003220700037
:10054000F00032A07000F00033207000F00033A003
:100550007000F00034207000F00034A07000F00053
:1005600031207000F00031A07000F00082000D30EA
:10057000600A0D40600BC010F0001020F0000D511B
:10058000600CC010F0001030F000F00035C0D00852
:10059000F0000D75600FF0000563600E24F7051D77
:1005A000600D25767000F00091C720E84015918F0E
:1005B00021E9D409C3EF200040129FBE2011580347
:1005C000A08035779001F0007000D008F00021F590
:1005D000F000A0CA2254F000CC090517600C832C4F
:1005E0007000F0008A617000F000AE482245A2BDA4
:1005F000A2282078F000F00035F0F000F00018009C
:10060000F000F0003078F00016E36009A0278901BF
:1006100023F4F000F00020F2F00082612173F0007A
:10062000A0503670F000A0582372E140A80122F3D8
:10063000F00090492275E04080617000F0008A511E
:1006400033F1F000A0587000F000AF487000F000E7
:10065000F0003470D00882000D75600890090D001C
:100660006009F0003500F000F0003380C028F00091
:100670001010F000F0003481D00882490D75600838
:10068000F00070008FFD04006000A2A38EC0400047
:10069000600560006005E600C81B7000F000D8DB54
:1006A0000D516008835B7000F0009EBA3003F000CB
:1006B000F0003084D409F00070008FAFF0000D75A9
:1006C0006008F0000D516009F0002403F000F00014
:1006D0002794D008A0037000F00000110800F0007B
:1006E00000110800C00EA00900110800A009700048
:1006F000F000A4087000D008A0037000F000001102
:100700000800F00000110800C026A0090011080030
:10071000A0097000F000A4087000D008F0001D01CE
:100720006008F0000A2C6000F000011A600131003E
:100730007000F00031817000D008A8017FFF6006D2
:10074000CC0A7000F0008EA13106F000F0003206F5
:10075000D409AEE804DFD080908770009807F000DD
:100760000FB1D2809E084189600614926000900407
:10077000A1981D016008AA567000F000A220320660
:10078000F000F0003280F00091C2069A600841E665
:100790000600D08082137000D809F0000FB1D2801B
:1007A0009E0810626001051F6005D009F00006E692
:1007B0006008A3657000F000F0003085D0081000DC
:1007C0006003A26F30230773D280F00007C6D08089
:1007D00008006003A0020E6F6009F00002006003D1
:1007E0008000F0000773D08040E0001F600113D547
:1007F0006007A01190407000F00013FB6006A00E8F
:1008000014056006A00D140F6006A00C4560003AA8
:10081000600113B66007A00B90407000F00013F762
:100820006006A00814016006A007140B6006A0066D
:100830004180003B600113B66007A0059040700046
:10084000F00013F76006A00214016006A001140B6B
:1008500060068000F0000D28D080D7CA00FF600439
:1008600081D70CF76009D0567000F00082763017FF
:10087000F000D0F64083F000C1A42019F00082F609
:100880007000F000C1802017A24EC3E77000F00096
:10089000C5C77000F000F0003017D0089A787000DB
:1008A000F0009A70700090DEF000700090DEF000B2
:1008B0000D67D080F0007000A114F000700080CDB2
:1008C0001EC86008A244F0002000A24390007000FF
:1008D000F000F0007000D409F00070008FA51EC871
:1008E0006008A23FF0003000D00800286000A23D60
:1008F0009E380EF460099E3870009FFFF000700073
:10090000D00840400C8AD580F0000C8BD280F000DB
:100910000FB1D2809C397000F0009C3170009003C0
:10092000F0007000900240107000AFF341F14040C1
:10093000800D40007000AFF141F14040800C03E8B1
:100940006002A22F90831044D180F0001042D0802A
:1009500040714020A00843A14030A00743B140307F
:10096000A006F0001075D08040714020A00443A183
:100970004030A00243B14030A001F0001081D0808F
:10098000F0000C92D080F0000C94D080F0000BC9E5
:100990006008F0001D8DD280F00016D5D080F000E8
:1009A0000BC96008F0001D8FD280F00016DAD080ED
:1009B0003E911F5FD280F000238AD0800D856008B1
:1009C000A21AF0003000D008F0000F88600BF00091
:1009D00002306003F000093860049F98012C600524
:1009E000F0002EB3EE00F0000FB1D2809E090D870B
:1009F000600C9F90700090029F882F34EE00F000F2
:100A00002FB5EE0030430B426008F00030C4F00018
:100A1000F0003145F000F0002CB14017F0002D320D
:100A2000F000C6792205F000F0003D81F000F000F2
:100A30003D01F000DD6D1B93D28090460D85600A6C
:100A400020421B93D280DAC92025A2038C692DB3E2
:100A5000F000DD493201F0008D897000F0003C812A
:100A6000FE356000358100166001A0182146F000B7
:100A7000AA07012D600081CF7000F0008F80700008
:100A8000F000F000700094024045574B6000E00019
:100A900060018002406540006000C6666001800021
:100AA000A03040006004AF4E00A46005818E0B753D
:100AB0006008F0001474D280F0001B90D2802E34B5
:100AC0000400600620C21B93D280D2C903E96005EE
:100AD000818E0B5960088F2D31C6F000F000700038
:100AE00094024045B15C6003466660078002406541
:100AF000AACE6003C66660078000A0E000386004EC
:100B0000AF48001D600581C73184F00031051474C1
:100B1000D280F0001B90D280F000D8006000F0007E
:100B20000B67600821C620006004F00013336005E5
:100B300081863184400731051474D280F0001B9007
:100B4000D080F0006E6C6003400700E56005A0589F
:100B5000FFFF6003AA240B526008811C7000F000A4
:100B600031057FDF600631841474D280F0001B9061
:100B7000D08091832E85F000F0002F06F000F00069
:100B80002F87F0000BC96009A1CE3E110D82600ACB
:100B9000F0002711A1CCA0502792F000AA410BB47D
:100BA000600C80522021A1C99ECB3592F00090416B
:100BB0007000D809882D7000D409F0003615F000B7
:100BC000F0003695F000910030A6F0003127146255
:100BD000D280900431C0F00021458CCD6006F00039
:100BE000FF556007F0001474D280F0003240F0002E
:100BF000F00032C1F000F00033428000F0000D82BE
:100C00006009F0000BC9600AF0002015A1B89145F9
:100C10007FEC600640477000D40920901447D280D2
:100C2000F00034A0F00021101447D280F0003520ED
:100C3000D0080A3D6007A1B1A2790BC96009A2BA28
:100C40007000F00090C03B91F0003B121462D28023
:100C5000F0003C10D008F0000B60600EF0000004C3
:100C6000600340A73FFC600432638008600532E403
:100C7000199A600633650D86600F31E67000F0004A
:100C800030777000D0080D82600AA1A3F0003020F8
:100C9000F00000D26001940BF00000D2600200FA74
:100CA0006003AFEDF000BE776006F0004B00600718
:100CB000370600016001378703E86002F000038413
:100CC0006004F00000016005F000008C6006F00098
:100CD0000AF06007F00070008FC7F0000BB46009E5
:100CE000F00000116005F000001160063B051000E7
:100CF00060073B86000460003C07AD846001321051
:100D000001FD600232910B5E600333120C806004BF
:100D1000319300A060053484FFD060063505E354AC
:100D20006007360634006000368600016001370730
:100D300003E86002378070008FB780E57FFF6000B6
:100D4000CC0A7000F0008EA93370F000AF20347030
:100D5000D409AEE87000F000A80500806007A8F68E
:100D60003375F000C3867000F0008F7F33F6F0001B
:100D7000A8851DE4D180F0003475D0080D86600987
:100D8000A17A20121F32D280F0003582D0089082E2
:100D90000D86600940A74077E640F0007000F00043
:100DA000F0003017D0080BB46008A173F000318256
:100DB000D008F00009616008F00009C96009F0007E
:100DC0002180F000F0002091A16EA2087000D008F0
:100DD00000CF6002A0010151600280010D8B60080C
:100DE00080010D8C60088000F0007000F000F000C1
:100DF0003002D0080FF26009A16620110D8B600A45
:100E0000F0002C92F00090412011F000F0007000F2
:100E100093FEF0007000F20031222031D0800D8B63
:100E20006008A003F0002022D0800D8C6008A00193
:100E3000F000201ED080F0007000F00020000E694D
:100E40006008F00001D06001F0003080F000F00098
:100E50003001D008836D0C35600840603A51600164
:100E600041E22196600333004144F0003381700079
:100E7000F00034027000F00034830C29600935045E
:100E80003A5F600035853A64600330907000F0008E
:100E9000339370008FDFF0007000AE5FF0007000E1
:100EA0008EA4F0007000AE9DF0000C51D280F000D6
:100EB00021A0D080F000052ED280F0007000A00E9E
:100EC000F00021B7D080F0001F32D280F0001E84E5
:100ED000D280F00021E0D080F0001EA4D280F0008B
:100EE00007F7D280F0002215D080F00007FBD280F7
:100EF000F000228FD080404022E1D280408022E268
:100F0000D280F000229CD080F00007FBD280F0005D
:100F100022B6D080F00020F0D280900227DFD2806D
:100F20009E697000F000F0000700D180F0002320DF
:100F3000D08090820C29600940174067E640F0009D
:100F40007000F000F0003217D008F00007F7D280F0
:100F5000F00027EAD280F00011B5D0804055151777
:100F60006008F0001D40600031051E6060013185A1
:100F70007000F00032057000F00032857000F00063
:100F800033007000F00033810D8E6009340002548C
:100F9000600234813880600330127000F0003093BA
:100FA0007000D008170B600CA11E00404005F00037
:100FB0000041243FD080F0000C83600890000C6B4F
:100FC000600BF000700CE600F0002003F000F00071
:100FD0002204F000F0003BB3F000F0003C34D008F5
:100FE000F0007000ADC1F0000C8D6008F000260A22
:100FF000D08083FF0D9B6008F00001F46000F000DA
:1010000003B16001100003B260021001040E600021
:101010001002040F60011000045C60021001045D06
:10102000600010021380600110000DAB6009100118
:1010300002EE6000100743066001101004696002B0
:10104000101144876000101205E36001101046087B
:101050006002101106AE600010120DA4600810109E
:101060009E3C600010170DB36009100025DA600087
:101070001007803D60011010288260021011C03DF1
:1010800060001012288760011010C03B6002101130
:10109000288C60001012C03B600110102891600283
:1010A0001011C03B60001012289660011010C03B68
:1010B00060021011289B60001012C03B60011010EC
:1010C00028A060021011403C6000101228A56001A9
:1010D0001010C03C6002101128AA60001012C03C21
:1010E0006001101028AF60021011C03C60001012A7
:1010F00028B460011010C03C6002101128B96000D3
:101100001012C03C6001101028BE60021011C03CDB
:101110006000101229CC600110100037600210111D
:1011200029D16000101200376001101029D660022A
:10113000101100376000101229DB60011010003719
:10114000600210110DD860081012271560001017EA
:10115000403E60011000271A60021001803C6000D0
:101160001002286460011000403C600210012869F0
:1011700060001002403C60011000286E6002100107
:10118000803A60001002287360011000803A60020B
:10119000100128A060001002403C6001100029CC22
:1011A0006002100100376000100229D160011000B8
:1011B00000376002100129D660001002003760017C
:1011C000100029DB600210010037600010020DEFF3
:1011D000600910007000F00010077000F000101798
:1011E0007000D0080CDF600BA0BE303023D6D28058
:1011F000F00026E8D0800D9B6008A0BBF000000244
:10120000A0BA90827000F000828A70009003908AE9
:1012100070009001F00070008FFB82BF7000F00042
:10122000F0000199D280F0000D9A6008F00026C10C
:10123000F000F0000002A0B190827000F000828AFD
:1012400070009003908A70009001F00070008FFB96
:1012500082807000F000F0007000D008F0000DAB4C
:10126000600DF0003FFF6002F0000051A0A8C253E3
:101270007000F0008EC470009001F000700097FCC8
:10128000D48F0199D28040050DA4600D40173FFF17
:1012900060029F7D0051A0A1C2537000F00082C483
:1012A000271CD180F000700097FC91462720D08049
:1012B00040070199D280F0000D8E600E400725C1D5
:1012C000A09A9E792E4040144036316790192F45E0
:1012D000196460024FF01A5E600383544036F000D8
:1012E000835C4000E200F0004010E200F00070007B
:1012F000F00090007000F000F00070009C11F00011
:101300000DD8600D403622F0D2800DB3600DE6009E
:1013100040142140F000F0002051A08B904170005B
:10132000F00082457000901DF00070009001F00008
:1013300070DC8FFB20D13FFF6002F0000CDF600B00
:10134000C2533161F000D48E3033F000D44A37C636
:10135000F000C6A27000F000C3A03D42F000F00013
:1013600031E0D008C62431E0F00090003D44F000A8
:1013700083B67000E04040D52141A07BCC0B4000FB
:10138000F00080ED23EAD280BF602060F000F00022
:1013900020E1F000F00023EAD28090C623DED28064
:1013A0004F954014A07481757000F000AF43700039
:1013B000F000C2E07000F00080C30CDF600BF000B2
:1013C0003363F000F00034E3F000F0003033A0416C
:1013D000F0007000801240D52141A06BCC0B400082
:1013E000F00080ED23EAD280BF602060F000F000C2
:1013F00020E1F000F00023EAD28090C623DED28004
:101400004F954014A064817570004006AF43700092
:10141000F000C2E00CDF600BF00031E0F00080C3B0
:101420004036E600C6243033F000F0003363F000AD
:10143000F00034E3F000F0003D44F000F00037C667
:10144000A02EF0002366A03182920BB8600347F40F
:1014500023E0D2805208600598038292520860030C
:1014600047F423E0D280520860059823F00033E46B
:10147000F000F0003465F000F0003564F000F0009A
:1014800035E5F000F0002366A04E918E7000F0006C
:10149000F0003366A024829252086003F00023E03B
:1014A000D280F00070009C0582920BB86003F000BF
:1014B00023E0D280F00070009BF70D94600DA02B0C
:1014C000F00070008FF5F00024E6A0439FBE70008E
:1014D000F000F00034E6A019829252086003F00098
:1014E00023E0D280F00070009C0582920BB860036C
:1014F000F00023E0D280F00070009BF70D97600DA4
:10150000A020F00070008FF5401423E1A038C263E2
:101510002562F000F00024659007C2A325E6F000E4
:1015200090807000900283777000F000256023E0C7
:10153000EBC00CDF600BA031F0003030F000F000A9
:1015400021E0D008C2A325E6F000F000700093F976
:10155000904070008FFAF00021E0AF0FF00024629D
:10156000D280F0003260F000F00032E1D008F000EC
:1015700023EDD280B8682260F000F00022E1F00094
:10158000F00023EAD280F00023DED280A988700028
:10159000F000ABF823E4D28046432142A020A0987B
:1015A0007000F000F00023E7D280F00023C6D28064
:1015B00090007000F000F0007000DC09F00023CE15
:1015C000D08047E57000F000401620D3A018835D5E
:1015D0002052F000C2F521549807C2B67000900264
:1015E000F00070009005F00070008002C2B670003C
:1015F000F000F0007000D40982647000F000F00088
:101600007000DC09F0003151F000F00030D2D00859
:101610000DEF600BA00C9E792036F000F000204505
:10162000F0009FBC7000E04091457000D009264456
:10163000272DD58091867000F000F0002732D580EC
:10164000F0007000AF672F412736D080F0002915D9
:10165000D280F0003B9ED280F0002888D080F0003D
:101660007000D008F00016C36008F000009A600017
:10167000F00002E36000100004F46000100006FFB8
:10168000600010000907600010000B1060001000DF
:101690000D1F600010000F65600010000F656000F6
:1016A00010000D1F600010000B10600010000907F3
:1016B0006000100006FF6000100004F460001000DD
:1016C00002E360001000009A6000F0001000F000DB
:1016D000F0001000F000F00016D36008F000FF9357
:1016E0006000F000FE3760001000FDD960001000BF
:1016F000FE9F600010000385600010000D6B60000D
:1017000010001684600010001E49600010001E4981
:10171000600010001684600010000D6B6000100067
:10172000038560001000FE9F60001000FDD960007E
:101730001000FE3760001000FF936000F000100002
:10174000F000F0001000F000F00016E36008F00078
:1017500000646000F000FFA860001000FFA66000B9
:101760001000FFDF60001000000160001000012881
:1017700060001000012F60001000FD2360001000C9
:10178000FDA1600010000389600010000254600099
:101790001000FE7D60001000008C60001000FBE176
:1017A00060001000F942600010000C47600010005B
:1017B0000EA260001000EC4360001000EACE600052
:1017C0001000174660001000174660001000EACEB7
:1017D00060001000EC43600010000EA260001000DA
:1017E0000C4760001000F94260001000FBE160004F
:1017F0001000008C60001000FE7D6000100002549C
:1018000060001000038960001000FDA1600010005E
:10181000FD2360001000012F60001000012860000F
:101820001000000160001000FFDF60001000FFA644
:1018300060001000FFA86000100000646000F0006D
:101840001000F000F0001000F000F000170B60082E
:10185000F00000036000F00054C0600010000005BC
:1018600060001000000560001000000F6000100014
:10187000000F6000100009C0600010000A20600026
:1018800010001D40600010001E606000F00010009D
:10189000F000F0001000F000F0007000D008000030
:1018A0004013402F416841C1421444DE44E945FBE6
:1018B000461147C547FC4D5D4E564E584E5B4D8315
:1018C0004E0A4E0B4E494E534F924FEA50415074C0
:1018D0005080566056D456D9582959B45A3A5B7933
:1018E0005BA25BEF5DDC603A608860A8619F61B6D7
:1018F00061DF62146259629B62A16369643B66099D
:1019000066E7670B671A67296887689968A768B2EE
:1019100000683349884200D0704780B5012000F04C
:1019200053FC01BD00682E49884200D0704780B545
:10193000022000F049FC01BD38B52A4D9024E40591
:101940000421200000F052FD002811D12648016832
:10195000C9B229600021A9602A682A2A3ED12960DB
:1019600058210170662101708121017001221DE062
:10197000A868032807D2A8681B4909682A1D1154C2
:10198000A868401CA860A868032827D128682828D0
:1019900005D1A8793B2802D1A888286131BD2868E3
:1019A000282808D1A8793F2805D100220821200045
:1019B00000F023FD31BD286829280FD1687900285F
:1019C0000CD1A879132809D12879AF2801D100209A
:1019D00003E02879A72801D10120287331BD000038
:1019E000002C0140DC0000200C300140F0B591B02B
:1019F00000F01CFD00F0A0FA1422002101A800F064
:101A000025FD8020C003DD4C216801432160216851
:101A10000840009000988026B6022068304320607D
:101A200020683040009000987000216801432160D8
:101A30002168084000900098002219219020C005DC
:101A400000F0DBFC1920019001200290002003909F
:101A5000049001A99020C00500F01EFC0420019014
:101A600000200290039001A99020C00500F014FC12
:101A700020680121014321602068C107C90F00913E
:101A80000098002203210B2000F008FD0B2000F03D
:101A900009FDCB48CB494860CB4888600020C8602E
:101AA00001200861002048618861C86108624862BD
:101AB000C64800F021FD002801D000F074FAC14DA5
:101AC0000021281D00F0F8FF002801D000F06BFA7B
:101AD0000021281D01F017F8002801D000F063FA5A
:101AE0002822002107A800F0B1FC18220021684636
:101AF00000F0ACFC6068A10C014361606068A10C5F
:101B00000840069006982068304320602068064010
:101B10000696069820200090022601960024029442
:101B200003940494059469469020C00501F014F8CC
:101B30004020009001960294039404940594694611
:101B40009020C00501F008F88027009701960294C4
:101B500003940494059469469020C00500F0FCFFAE
:101B60009B4801689B4A0A4071031143016030069B
:101B70009949086007940894480D09900A96012035
:101B80000B9040020C900E970F9407201090934EEC
:101B900007A9300001F032F87068102188437060A6
:101BA0007068082188437060706849020143716061
:101BB00008220021684600F049FC1C22002102A8EE
:101BC00000F044FC2022002109A800F03FFC8448DA
:101BD00028656C652020A8656120E8652C660120D9
:101BE0006866AC662800503001F053F8002801D038
:101BF00000F0D9F90094019469462800503001F0B2
:101C00001DFB002801D000F0CEF960200290039463
:101C100004940594069407940894002202A92800CD
:101C2000503001F06FF8002801D000F0BCF9042218
:101C300002A92800503001F065F8002801D000F01A
:101C4000B2F909940A940B940C940D94770C0E97A6
:101C5000109409A92800503001F018FB002801D089
:101C600000F0A1F92800503001F0F6FB1C22002101
:101C700009A800F0EBFB2022002101A800F0E6FB00
:101C8000AB48902168502800903044602800903084
:101C90008460A84829009031C86028009030046111
:101CA00028009030446128009030846128009030F2
:101CB00000F0D4FF002801D000F075F92800903022
:101CC00000F0E7FF002801D000F06DF960200990D6
:101CD000BD480A900B940C940D940E940F94BB483D
:101CE0000090002209A901F00DF8002801D000F0B1
:101CF0005AF9019402940394049405940697089465
:101D000001A9009801F0C2FA002801D000F04BF9B7
:101D1000322001F0DDFB20219020C00500F066FBA1
:101D2000002810D19020C00500698006FAD5072050
:101D30009021C90520220B691340FCD10B69134087
:101D4000FCD0401EF7D140203168014331607168FA
:101D500008437060FF203073012208219020C005E5
:101D600000F04BFB01F014FD002801D101F01EFC36
:101D7000974801F08EFC0099964801E0141002404B
:101D800000F034F92C46944E01F062FD0700307BE0
:101D90006178884207D0317B6170307B012800D0A8
:101DA000002001F087FC30690099096C884239D025
:101DB000306900990864306932214843874911E04D
:101DC000005400400400002011041000080000200E
:101DD00018E400E0FF00FFFF00E100E000300140F8
:101DE000002C014040180A2101F038FD80B201F0BA
:101DF00050FC012210219020C00500F0FEFA0022C4
:101E000001219020C00500F0F8FA0122082190205D
:101E1000C00500F0F2FA00202070A070009847641E
:101E200000F0C7F92078002821D138000A2101F0FC
:101E300015FD00292AD101F0B3FCFA21890088425E
:101E400015D10120207001F07DFC0500421E924159
:101E5000D20F10219020C00500F0CFFA6A1E9241E7
:101E6000D243D20F01219020C00500F0C6FA20789D
:101E700000280BD0A078002808D10098406C381AB0
:101E80005749884249D30120A07002E0A078002879
:101E900043D038009621490001F0E0FC002910D120
:101EA00001F08CFC80210902884201D0012200E06F
:101EB000002208219020C00500F09FFAA078002899
:101EC0002BD03800462101F0C9FC002911D101F0C6
:101ED00015FC44488078A2210140822906D141485E
:101EE000017BAA220A4001D100F01DF9A078002848
:101EF00013D0307B002810D13800642101F0AEFCF3
:101F000000290AD101F01EFC421E9241D243D20F99
:101F100001219020C00500F070FA01F099FCB84250
:101F200000D031E70121002001F0F0FCF5E70000CE
:101F3000004401402F12000038B594B03022002137
:101F400008A800F083FA10220021684600F07EFA0B
:101F50001022002104A800F079FA012408940994C1
:101F60000025109508A801F0E1FC002801D000F040
:101F70001AF8072000900194029503950021684605
:101F800001F0A2FE002801D000F00DF820200490FE
:101F90001020079004A801F05FFF002801D000F096
:101FA00002F815B030BD7CB50F4C00269025ED052C
:101FB0000121280000F027FA00960098A042F7DAE5
:101FC0000098401C0090F8E79B0A00009400002055
:101FD0007C29000054000020DC00002066D6FFFFB2
:101FE000E9030000A801002050C30000F3B583B04E
:101FF000C068C0B200210191A54F984E029001988F
:1020000001F0BEFF04000D0095A003C822002B00C4
:1020100001F0C0FF0022974B02F07EF896A20CCA96
:1020200002F0DBF802F0B3F902F010FB8E4902F087
:1020300012FB4000400802F067FB02F0B1FB69466A
:1020400008708AA003C822002B0001F0A3FF002221
:10205000884B02F061F888A20CCA02F0BEF802F0C8
:1020600096F902F0F3FA0100FE20800502F0B5FBBC
:1020700002F044FC0022824B01F08CFF02000B00B6
:102080000020804902F00CF900227F4B01F082FF12
:1020900002F07DF902F038FB02F082FB6946097814
:1020A0003970307002996A461278891A79700299EB
:1020B000081A70700198401C0190B61CBF1C1828AB
:1020C0009DDB049D724C022303980268203221009C
:1020D0004431686A02F060FC2868C168802292007E
:1020E0000A43C260802252006020019000922300C7
:1020F00048330D21039800F06CFE0021280000F009
:10210000D7FD0021039800F0D3FD0421039800F0CF
:10211000CFFD72B6002029684862039909684862B9
:1021200062B605B0F0BD10B50400A08840BA80B218
:1021300002F004FD0100FC208001484000F02CF872
:10214000E08840BA80B202F0F9FC0100CC20C00166
:10215000484000F021F82089A178C90640BA06D588
:1021600080B202F0EBFC0100D420000205E080B256
:1021700002F0E4FC0100B420C001484000F00CF87B
:10218000608940BA80B202F0D9FC0100DA20C001B7
:10219000484000F001F810BD10B43C490A683D4BBE
:1021A00094001851521C342A00D300220A6010BC3B
:1021B000704738480D210022026042608260C26090
:1021C0001030491EF8D1704770B50400304D012819
:1021D00002D0022805D008E0290048312E004436FC
:1021E00003E0290078312E004636686B800F05D059
:1021F00002280AD007D303280CD010E0174802F0B9
:10220000AAFC11200AE0280005E0280002F0A3FC47
:10221000112003E0114802F09EFC33203080686BEF
:102220004000296B2A6CEB6B022C12D1AE6BCC0FE9
:102230007440AC630600601C30434900521C1A2AEB
:1022400007D3002213499E0089595B1C342B00D30D
:102250000023EB632A642963686370BD1C030020BC
:10226000182D4454FB2109400000F041182D44541E
:10227000FB21194000003840182D4454FB21F9BFC0
:102280000000D03F0000F03F00003E404C03002023
:10229000F0000020C4010020FCB4002201230093C0
:1022A0002AE0052602E05B4FB842FAD1AE40264351
:1022B000019C2660584C2668DC4326404D68ED039F
:1022C00000D51E43544D2E606E6826404F68BF03F4
:1022D00000D51E436E60AE6826404F68FF0200D5F1
:1022E0001E43AE60EE6834404E68B60202D526004A
:1022F0001C003443EC60521C0C682300D34073D0A4
:10230000009B934001932340F5D04C68022C01D0F0
:10231000122C10D1D408A40005192C6A97001C2691
:102320003E400F27B740BC430F69BC4637006646A6
:10233000BE4026432E62066854000327A740FD4393
:102340002E400F79BF07BF0FA740374307604E6885
:10235000012E05D0022E03D0112E01D0122E11D144
:1023600086682E40CF68A740374387604768019E44
:10237000B743BC464E683709009E3E4096406746CC
:102380003E434660C76803263D408F68A7402F4301
:10239000C7604C68E400AED5204C2468009D2543FE
:1023A0001E4C25602468009D25400195019C1C4C15
:1023B0009508AD006419019424680C2597003D40F0
:1023C0000F27AF40BC439027FF05B84201D100263C
:1023D0006CE7144FB84201D1009E67E7124FB84234
:1023E00000D060E7022661E7F3BC7047006908404F
:1023F000401E8041C043C00F7047002A01D0816158
:1024000070478162704742690A4000D009048161C7
:1024100070470000000C0048000401401810024002
:1024200008000140000400480008004880B5064844
:10243000016810220A430260032002F09BFB00F0B7
:102440006FFF002002BD00000020024010B5040014
:10245000080011000200200002F0AEFB200010BDB9
:1024600010B4C20018231340FF249C40E2438907A4
:10247000090E9940030004D419489B089B00C0181A
:1024800006E0184B0007000F083880088000181875
:1024900003681A401143016010BC704780B5FFF714
:1024A000DFFF01BD010005D40121C006C00E81403F
:1024B0000D4801607047401E0C49884201D9012037
:1024C00070470B4948600B4802681202120AC02389
:1024D0001B06134303600020886007220A607047D0
:1024E00000E400E01CED00E000E100E0FFFFFF0081
:1024F00010E000E020ED00E038B5040001D101203B
:1025000032BD250040356878002803D128702000AE
:1025100000F01BFF242068702068016801229143AD
:1025200001606068804901402068016121687F483E
:102530008A6802408A60E1680129A16801D1C2432A
:1025400001E0842212020A4321688A60E1680229BC
:1025500003D1802109012268516021684A68744BC7
:1025600013434B602168CA681040C86020696169E4
:102570000143A069000208432168C860E069216A3C
:102580000143206801602068016801220A4302605B
:1025900000206860202169702063A87032BDF7B503
:1025A00004001F0040304078202800D0B9E04020CF
:1025B000205C012800D1B4E02500403501202870BE
:1025C00001F046F906002068816909040DD501F083
:1025D0003FF9801B1A28F6D32020696801436960FF
:1025E00068700020A87028708AE0029921222300D8
:1025F00040335A701022230040339A700022230087
:1026000040335A6061626785626369468D88089FBE
:10261000618DFF290ED9FF2121854268A84911400B
:10262000AA05920D0A43A749114341606846858077
:102630003D0013E0628D2285A348009080239B0417
:10264000D2B22900200000F020FAEFE7FF23238513
:102650004368194011439D4A0A434260608D002837
:1026600047D032002900200000F04CF9002847D163
:10267000606A007821688862606A401C60629448E1
:10268000618D09186185218D08182085618D0029CB
:10269000E4D00004E2D120688169090616D4002044
:1026A000C0438542F7D001F0D3F8801B854201D3A7
:1026B000002DF0D100942146403120204A68024389
:1026C0004A60487000208870087019E0694689885F
:1026D0008A05920D7F49638DFF2BB7D8638D2385C3
:1026E000476839400A431B06190A114380229204A5
:1026F000B2E729003200200000F02EF9002801D0B6
:1027000001200FE020202168C86121684A68724BCF
:1027100013404B60210040314870002088700870E1
:1027200000E0022003B0F0BDFFFFFFF0FF7FFFFFDE
:1027300000800002F7B504001F00403040782028D8
:1027400000D0B9E04020205C012800D1B4E0250091
:1027500040350120287001F07BF80600206881696F
:1027600009040DD501F074F8801B1A28F6D3202037
:1027700069680143696068700020A87028708AE069
:1027800002992222230040335A7010222300403342
:102790009A700022230040335A6061626785626349
:1027A00069468D88089F618DFF290ED9FF212185FB
:1027B000426843491140AA05920D0A434749114313
:1027C0004160684685803D0013E0628D2285444863
:1027D000009080239B04D2B22900200000F055F91C
:1027E000EFE7FF232385436819401143374A0A4323
:1027F0004260608D002847D032002900200000F0A0
:10280000CFF8002847D12068406A616A0870606A82
:10281000401C60622E49208D40182085628D511821
:102820006185618D0029E4D00004E2D120688169CE
:10283000090616D40020C0438542F7D001F008F8FD
:10284000801B854201D3002DF0D1009421464031F8
:1028500020204A6802434A6048700020887008704F
:1028600019E0694689888A05920D1A49638DFF2B04
:10287000B7D8638D2385476839400A431B06190A78
:10288000114380229204B2E729003200200000F0B8
:1028900063F8002801D001200FE020202168C861E2
:1028A00021684A680C4B13404B602100403148704E
:1028B00000208870087000E0022003B0F0BD000026
:1028C000009800FC0020FF81002000800000FF0134
:1028D000FFFF0000009C00FC00E800FE0024FF81D8
:1028E00000240080406C704700688169890701D529
:1028F00000218162012182690A4002D1826911436B
:1029000081617047F8B5022704000D0016002068A9
:10291000806938401ED132002900200000F07CF888
:10292000002801D00120F2BD0020C0438542EED036
:1029300000F08EFF801B854201D3002DE7D12000DF
:102940004030202142680A4342604170002181707A
:102950000170E7E70020F2BDF8B5202504000E0065
:10296000170020688069284018D13A003100200003
:1029700000F052F800280FD100F06AFFC01B864219
:1029800001D3002EEDD12000403041682943416041
:1029900045700021817001700120F2BD0020F2BD60
:1029A000F8B5202504000F000092042620688069F5
:1029B00030402FD1009A3900200000F02DF8002877
:1029C00026D12068816929400FD100F041FF00998C
:1029D000401A874201D3002FE8D1200040304168DF
:1029E000294341604570002111E081690E4002D009
:1029F000218D00290ED1C561206841682C4A0A400A
:102A000042602000403000214160457081700170BB
:102A10000120F2BD0020F2BDF8B5102403689B69C7
:102A2000234030D005000F000092202628688169DD
:102A3000314011D10020C0438742F7D000F008FF99
:102A40000099401A874201D3002FEFD1280040306F
:102A500041683143416010E0C4612868C6612800C4
:102A6000FFF742FF28684168114A0A404260280087
:102A70004030416804220A43426046700021817060
:102A800001700120F2BD0020F2BDF0B4049C00688A
:102A90004568660D074F3743BD438905890D2943B6
:102AA00012040A4313431C434460F0BC7047000007
:102AB00000E800FEFF63FF0370B402004032537869
:102AC000202B1DD14023C35C012B19D0012313708F
:102AD00024245470046825689D4325600468256893
:102AE0001B4E2E402660046825682943216000683B
:102AF00001680B430360202050700020107000E03C
:102B0000022070BC704770B4020040325378202B12
:102B10001BD14023C35C012B17D001231370242445
:102B20005470046825689D43256004682568094E33
:102B30002E40090231432160006801680B430360A5
:102B4000202050700020107000E0022070BC704700
:102B5000FFEFFFFFFFF0FFFFF0B400223CE01D0A93
:102B60002B006B436B436B43456A1E01F61AB5435A
:102B700063432B4343622EE00123934023402AD03A
:102B80001D005D436C006619F443066826404F68DB
:102B90006F43374307604E68012E01D0022E05D1E6
:102BA000866826408F686F4337438760C668344025
:102BB0000E696E432643C6604C68022C0BD14C69EB
:102BC000FF2BCCD85D435D43036A2E01761BB343D4
:102BD00065431D430562521C0C682300D340CBD1D2
:102BE0004A68012A01D0022A05D14268A243C96875
:102BF0004C43144344600020F0BC704702000120A5
:102C000013685B0625D41068124B0340086818430C
:102C10004B680343C86818430B690343486918436A
:102C20008B690343C86918430B6A034313605068F8
:102C3000094B0340886818434B691B0C03435360DE
:102C4000086A80239B01984202D1486A80B21061D1
:102C5000002070474000FFFFFBF0FFFF10B50400AD
:102C600001D1012010BD3D20205C002804D13C2171
:102C70006054200000F0C0FBFFE702203D216054BB
:102C8000211D206800F0C2F901203D216054002080
:102C900010BD10B5040001D1012010BD3D20205C05
:102CA000002804D13C216054200000F07CFBE4E7C4
:102CB00000BF00680122CB06DB0E01219940036AA8
:102CC0008B430362036A194301620C49884205D0B1
:102CD0000B49884202D00849884203D1416CD30392
:102CE0000B43436481684907490F062902D00168F4
:102CF0000A4302600020704700480140002C014058
:102D000000440140F8B504003C20205C012801D1BA
:102D10000220F2BD27003C3701263E7002203D23F1
:102D2000E0540D00002A06D0042A15D0082A27D026
:102D30000C2A36D048E0206800F09EF920688169AE
:102D400008220A43826120688169042291438161DB
:102D5000206881692A6910E0206800F0C2F92068C3
:102D60008169F2020A438261206881696A4A0A40E5
:102D70008261206881692A6912020A43826123E024
:102D8000206800F0E0F92068C16908220A43C261A6
:102D90002068C16904229143C1612068C1692A6920
:102DA00010E0206800F0FFF92068C169F2020A43D0
:102DB000C2612068C169584A0A40C2612068C1697D
:102DC0002A6912020A43C2613D202654002038704D
:102DD000F2BDF8B504000E0019003D20205C022869
:102DE00040D0069D3D20205C012807D1002902D15A
:102DF000002D00D08CE002203D23E0541700079BFB
:102E000080225200974212D0520097422BD052009B
:102E1000974239D05200974243D0520097424DD04A
:102E20005200974257D05200974261D00FE03B4882
:102E3000226A90623A48226AD0623A48226A106353
:102E400022684C32206A01F0DDFD002860D1354354
:102E5000206885642068C1680F43C76001203D2158
:102E600060540020F2BD3048626A90622F48626A66
:102E7000D0622C48626A106322684C32606A01F0AA
:102E8000C1FD002844D1E2E72748A26A90622748A2
:102E9000A26AD0622348A26A106322684C32A06AF8
:102EA000EDE72148E26A90622048E26AD0621D485C
:102EB000E26A106322684C32E06AE0E71A48226B4B
:102EC00090621A48226BD0621648226B1063226807
:102ED0004C32206BD3E71648626B90621548626BE8
:102EE000D0621048626B106322684C32606BC6E798
:102EF0001148A26B90621148A26BD0620948A26B84
:102F0000106322684C32A06B01F07CFD00289ED03B
:102F10000120F2BD00000000FFFBFFFFCD2F0008E5
:102F2000DD2F0008412F0008512F00088F2F0008C7
:102F30000133000811330008ED2F0008FD2F0008B1
:102F400080B5406A01213D22815401F05CFE01BD43
:102F500010B5446A01213D22A154626A904201D118
:102F600021770EE0A16A884201D1022008E0E16ADF
:102F7000884201D1042003E0216B884201D108205E
:102F80002077200001F040FE0020207710BD10B512
:102F9000446A01213D22A154626A904201D1217705
:102FA0000EE0A16A884201D1022008E0E16A88426D
:102FB00001D1042003E0216B884201D10820207751
:102FC000200001F022FE0020207710BD80B5406A6D
:102FD00001213D228154FEF7A5FC01BD80B5406A68
:102FE00001213D228154FEF793FC01BD80B5406A6A
:102FF00001213D22815401F009FE01BD80B5406AE6
:1030000001213D22815401F002FE01BD10B403688C
:10301000794A904202D0794CA04206D17024A34351
:103020001C004B68234390420BD0744CA04208D044
:10303000734CA04205D0734CA04202D0734CA04206
:1030400003D1714C1C40CB6823438024A3434C69BB
:103050001C4304608B68C3620B688362904205D096
:10306000684A904202D0694A904201D109690163DD
:103070000121416110BC704770B4026A01239A4378
:103080000262046A4268856973239D430B682B437F
:103090000225AC438D682543574CA04205D0594EBC
:1030A000B04202D0594EB0420BD10826B5432E0093
:1030B000CD6835430426B543A04205D0514CA0420B
:1030C00002D0524CA04205D1524C14404E692643C6
:1030D0008A6932434260836149684163056270BC1A
:1030E000704770B4026A10239A430262026A43680E
:1030F0008469474D25400C6824022C432025AA43AF
:103100008D682D0115433C4A904208D18022954399
:103110002E00CA68150135434022954305E0394A1F
:10312000904202D0394A904206D13B4A1A404B693C
:103130008E691E43B3001343436084614968816311
:10314000056270BC704770B4026A344B134003626E
:10315000046A4268C56973239D430B682B43304D55
:1031600025408C6824022C43234DA84207D12D4DC5
:103170002540CC6826022E432B4C344005E0214DDF
:10318000A84202D0214DA84206D1284D15404A69D7
:103190008E69164332012A434260C3614968C163A4
:1031A000046270BC704730B4026A214B1340036262
:1031B000036A4268C469164D25400C6824022C43FA
:1031C0001C4D1D408B681B032B430B4DA84205D0A3
:1031D0000C4DA84202D00D4DA84204D1164D154009
:1031E0004A6992012A434260C461496801640362EA
:1031F00030BC704700000000002C0140000400407B
:103200000020004000440140FFFCFFFF0048014057
:10321000FF8CFFFFFFFCFFFFFFF3FFFFFFFEFFFF41
:10322000FFFDFFFFFFF7FFFFFFFBFFFFFFCFFFFFEC
:10323000FFEFFFFFFFDFFFFFFFBFFFFFF0B43C2208
:10324000825C012A01D102201EE002003C320123EF
:10325000137002243D25445505686E68AC687027DC
:10326000BE430F6837436F6005681E4EB54202D0FB
:103270001D4EB54204D18026B44349682143A9605C
:103280003D21435400201070F0BC70473C22825C0A
:10329000012A01D10220704701223C23C254CA688E
:1032A000124B13408A681A43114B13404A681A4361
:1032B000104B13400A681A430F4B13400A691A4314
:1032C000074B13404A691A430C4B1340C969194311
:1032D0000268516400213C228154002070470000A4
:1032E000FFDFFFFF002C014000040040FFFCFFFF58
:1032F000FFFBFFFFFFF7FFFFFFEFFFFFFFBFFFFF3A
:1033000080B5406A01213D22815401F081FC01BD5C
:1033100080B5406A01213D22815401F07AFC01BD53
:1033200081B001205F490A6802430A600A681040C0
:1033300000900098802040054A6802434A6049682E
:1033400008400090009801B0704710B586B00400A6
:103350001422002101A8FFF779F820685249884219
:103360001FD18020C002514C216801432160216897
:10337000084000900098C020019012200290012087
:10338000039000210491059001A94948FEF784FFAC
:1033900080208003A1680143A160A16808400090DB
:1033A000009806B010BD38B5040020684149884235
:1033B00021D1C80C3B490A6802430A6009680840E9
:1033C000009000983C4D3D48286010206860002027
:1033D000A8608021E9608031296168612021A961AC
:1033E000E861280001F0A4FA002801D0FEF7DBFD17
:1033F000E5626C62256231BD38B504002068304951
:10340000884228D18020800226490A6802430A6047
:1034100009680840009000982A4D2B482860102029
:1034200068600020A8608021E960803129618900FE
:1034300069612021A961E861280001F079FA00287A
:1034400001D0FEF7B0FD21480168C20C0A430260BA
:1034500065626C62256231BD10B586B0040014222D
:10346000002101A8FEF7F2FF20681249884217D117
:10347000802080020D490A6802430A6009680840FA
:1034800000900098C020800001900220029000214E
:1034900003910491059001A99020C005FEF7FCFE60
:1034A00006B010BD18100240005400401410024035
:1034B00000040048002C0140940200205800024003
:1034C00000440140D80200204400024000000140B6
:1034D00038B5050000F0BCF904000020C043854267
:1034E00002D0044800782D1800F0B2F9001BA84261
:1034F000FAD331BD98010020F8B515001F00012650
:1035000000280AD00A0008D00A2200920B0002000C
:10351000C821AE48FFF743F80600002D1AD0002F4F
:1035200018D0300016D1A94C0A2000903B002A0088
:10353000C9212000FFF7FEF8060003280AD1200069
:10354000FFF7D0F9002805D12068406AE919491E23
:10355000087000263000F2BDF8B588B01B226B461B
:103560001A7100249A4F00900E001AE0002D0FD01F
:1035700003E0351B182DF9D9182501A8401C009926
:1035800009192A000B780370491C401C521EF9D1FE
:1035900000230022691CC9B201A8FFF7ADFF3876ED
:1035A0006419B442E5D309B0F0BD000070B502E083
:1035B0000520FFF78DFF00F0EBF80028F8D1844CD0
:1035C00089A60023002203213000FFF795FF207613
:1035D00000230022032100BF84A0FFF78DFF207687
:1035E0007C4D7D492800FFF7B7FF0023002203210F
:1035F0003000FFF781FF207600230022032100BF67
:103600007BA0FFF779FF2076702174482818FFF718
:10361000A3FF0023002203213000FFF76DFF207677
:1036200000230022032100BF72A0FFF765FF207670
:1036300002E00520FFF74CFF00F0AAF80128F8D1BE
:1036400000230022092100BF6BA0FFF755FF207661
:1036500000230022052100BF6AA0FFF74DFF20765E
:1036600002E00520FFF734FF00F092F80228F8D1BD
:1036700000230022052100BF64A0FFF73DFF207654
:1036800000230022092100BF6DA0FFF735FF20763F
:1036900070BD1CB54E4C010A6175A0750A200090E2
:1036A000072322001032C8214D48FEF778FF20760C
:1036B00013BD000010B5464C00280DD00023002299
:1036C000052100BF53A0FFF717FF2076002300223B
:1036D000052100BF51A00CE000230022052100BFFE
:1036E00050A0FFF709FF207600230022052100BF2C
:1036F0004EA0FFF701FF207610BD00007CB5334DD2
:103700000A200090032300BF50A2C8212800FEF722
:1037100046FF06002E4C13D10A2000900E232200F3
:10372000C9212800FFF706F80600032808D1280061
:10373000FFF7D8F8002803D12868406A6073002694
:10374000267673BD10B5224C10232200032100BF42
:1037500039A0FFF7D1FE2076A08840BA9621490013
:10376000884210D3E08840BA1D3988420BD22089A4
:1037700040BAE72807D2608940BA00B2002800D5D5
:103780004042652801DB002010BD012010BD000073
:1037900010B50F4C04232200032100BF11A006E046
:1037A00010B50B4C04232200032100BF21A0FFF71A
:1037B000A3FE2076608840BA80B210BD10B5044CDC
:1037C00004232200032100BF1CA0F0E70800002012
:1037D000A8010020B0000008EE170000F01700005C
:1037E00008000020408000001C0000001C00740045
:1037F0001C0075001400010040040100B71B00000C
:10380000000000004005010001000000300B010035
:10381000000000002014010001000000201601003B
:10382000010000002014010000000000201601002B
:1038300000000000208000002081000020850000A2
:103840002051010001000200000000002083000060
:1038500001484068704700BF980100200022030A19
:103860008B420BD203098B4219D243088B422ED2D2
:10387000411A00D20146524110467047FF22090208
:103880003FD012068B4205D3121209028B4201D39C
:103890001212090203098B4219D300E0090AC30975
:1038A0008B4201D3CB01C01A524183098B4201D311
:1038B0008B01C01A524143098B4201D34B01C01AFC
:1038C000524103098B4201D30B01C01A5241C30874
:1038D0008B4201D3CB00C01A524183088B4201D3E3
:1038E0008B00C01A524143088B4201D34B00C01ACF
:1038F0005241884200D3401A5241CFD2014610466D
:10390000704708B501F086F908BDFEE70648026871
:1039100004239A430260012901D130BF704740BFA0
:1039200020BF20BF7047000010ED00E0F8B5050093
:1039300000D1BFE1B04C2878C00715D50C206168D4
:103940000140042909D061680840082842D180203C
:1039500040026168014081423CD12068800303D568
:103960006868002800D1A5E102202968014018D02C
:103970000C2162680A4006D062681140082965D1AE
:103980006168C90362D42168084003D0E86801284F
:1039900000D08FE12068F82188432969C9000143DC
:1039A00021602878000700D484E0E8690028606A74
:1039B00070D0012101436162FFF74AFF0227060030
:1039C000606A384076D1FFF743FF801B0228F7D9A1
:1039D0000320F2BD6868012804D1206880214902D3
:1039E000014315E0002801D120680BE0052820687C
:1039F00008D18021C9020143216020688021490249
:103A0000014305E0AD49014021602068AC49014017
:103A100021608027BF02686800280BD0FFF718FFDD
:103A20000600206838409FD1FFF712FF801B6528F1
:103A3000F7D3CDE7FFF70CFF06002068384093D09E
:103A4000FFF706FF801B6528F7D3C1E7E868002869
:103A500020680FD0012101432160FFF7F9FE022702
:103A600006002068384095D1FFF7F2FE801B02283F
:103A7000F7D9ADE7012188432060FFF7E9FE02276F
:103A80000600206838408CD0FFF7E2FE801B022839
:103A9000F7D99DE7012188436062FFF7D9FE02272D
:103AA0000600606A384005D0FFF7D2FE801B02286E
:103AB000F7D98DE704272868384060D000200090AF
:103AC000B806E169014008D1E1690143E161E169BA
:103AD000084000900098012000907A480068C005D6
:103AE00012D478480068A10D014376480160FFF7C1
:103AF000AFFE060073480068C00505D4FFF7A8FEB6
:103B0000801B6528F6D363E7A868012808D0002841
:103B100001D1206A09E00528206A06D138432062D5
:103B2000206A01210143216205E0012188432062CE
:103B3000206AB8432062A86800280CD0FFF788FEEE
:103B40000600206A800713D4FFF782FE801B9B4982
:103B50008842F6D33CE7FFF77BFE0600206A800729
:103B600006D5FFF775FE801B94498842F6D32FE7F0
:103B70000098002803D0E06991490140E16128786C
:103B8000C0061DD56869012838D1606B074367639B
:103B9000606B012101436163FFF75AFE02270600B3
:103BA000606B384005D1FFF753FE801B0228F7D920
:103BB0000EE7606BF8218843A969C900014361637E
:103BC000286A002878D061680C220A40082A5CD054
:103BD0008027BF048D490228206848D10140216018
:103BE000FFF736FE06002068384022D0FFF730FE8F
:103BF000801B0228F7D9EBE6001002400421C943DC
:103C00008842606B02D101406163D2E7074367637A
:103C1000606B012188436063FFF71AFE02270600EC
:103C2000606B3840CCD0FFF713FE801B0228F7D919
:103C3000CEE6E06A0F218843E96A0143E1626068E9
:103C400073490140A86A0843696A014361602068BA
:103C5000790801432160FFF7FBFD0500206838402B
:103C60002AD1FFF7F5FD401B0228F7D9B0E6014045
:103C70002160FFF7EDFD0500206838401CD0FFF7FC
:103C8000E7FD401B0228F7D9A2E6012812D06068A0
:103C9000E16A8022520202406B6A9A420AD1090705
:103CA000090FEA6A914205D1F02189030140A86A0F
:103CB000814201D00120F2BD0020F2BDFFFFFEFFD6
:103CC000FFFFFBFF00700040F8B504005CD00091DE
:103CD000012750480068384088420AD24D480168A0
:103CE000B943009A0A43026000683840009988424C
:103CF0004AD12168484D022001420CD0490704D521
:103D00006968E022D2000A436A606968F022914340
:103D1000A2680A436A602168394025D06168012998
:103D200002D12868800303E0022903D128688001BA
:103D300003D429E02A68104026D068680322904303
:103D400001436960FFF784FD060068680C210140AB
:103D500060688000814207D0FFF77AFD801B174919
:103D60008842F2D30320F2BD2A48009902683A4003
:103D700091420BD20168B943009A0A43026000687D
:103D800007400098874201D00120F2BD207840070B
:103D900005D5686821490140E0680843686000F083
:103DA00011F81F496A681206120F895CC8401D4944
:103DB0000860032000F0DEFE0020F2BD8913000041
:103DC000FFFFFFEF10B5184802680C2111400429CD
:103DD00002D0082902D016E0144810BD0F2100BF00
:103DE00015A3940C0C401C5D836AD00307D50F48C3
:103DF00015A21940515CFFF731FD604310BD200052
:103E00000B49484310BD0B4810BD0000FFFFFFFEEB
:103E1000FFFFC2FF0020024000100240FFF8FFFF3A
:103E2000C84D0008A40100200410024000C0A800F2
:103E300000093D0000127A00020304050607080984
:103E40000A0B0C0D0E0F10100102030405060708E3
:103E5000090A0B0C0D0E0F10FEB507003A4C38681E
:103E6000C0035BD50025802040052168014007D1B3
:103E700021680143216021680840009000980125D5
:103E800032480068C00513D430480068A10D0143D2
:103E90002E480160FFF7DCFC06002C480068C005D6
:103EA00006D4FFF7D5FC801B6528F6D3032048E035
:103EB000C02080006168014024D07A6810408142AF
:103EC00020D06168224808406168802252020A437B
:103ED000626061681F4A0A4062606060C00711D575
:103EE000FFF7B6FC1C4901910221009106006068B1
:103EF0000099014006D1FFF7ABFC801B0199884275
:103F0000F5D3D3E7606812490140786808436060E0
:103F1000002D03D020681149014021603878C00786
:103F200005D5606903218843B96801436161387828
:103F3000800605D5606910218843F96801436161F5
:103F4000002003B0F0BD00001C10024000700040D3
:103F5000FFFCFFFFFFFFFEFF89130000FFFFFFEFE5
:103F6000010042221201D21E004207D002D4521E8A
:103F70000018FCD5C10A40051205891870470000D9
:103F80000100EED54042F446FFF7EBFF0122D207D5
:103F900011436047F0B50E005E400125ED072E404D
:103FA000B446AE0ADF184C18F44208D2F7420ED2DB
:103FB000640D01D07F0D12D100206146F0BD05D106
:103FC000F74201D87F0D05D10020C143F0BDFBD1E0
:103FD000640DF9D00020C143490549088FE0E41978
:103FE000C902DB0229432B43DB0A460DC0023143E1
:103FF0008E4630B487B295B27D432E0CADB2140C10
:104000007C43A419260C240425439CB27C43A419A8
:10401000190C7943270CC919A4B20F043C43090CAD
:10402000000C97B247432E0CBE193543ADB2170CA6
:104030004743360CBF19A6B2BF193E043543240CC2
:104040003E0C36199FB24743BF19BCB23E0C8919CA
:104050001F0C47437F183E043443390C704680B22E
:1040600097B247432E0CBE193543ADB2170C4743E8
:10407000360CBF19A6B2BF193E043543240C3E0CC2
:1040800036199FB24743BF19BCB23E0C89191F0CA9
:1040900047437F183E043443390C77463F0C90B2B7
:1040A00078432E0C80190604ADB22E43050CA0B245
:1040B0002D18120C7A435019020C80B2240CA4184B
:1040C0009AB27A43121914042043120C89181B0C5B
:1040D0007B43C91830BCEF0A394203D1B6194041BD
:1040E0004941641E6F12BF0DE41B0BDBFF19BC427C
:1040F00011DA240500274208AE4178416141664645
:104100003143F0BD641C05D1401C6141CF0201D395
:104110004908F4E750E75DE7F0B40E005E40012582
:10412000ED072E40B446AE0ADF184C18F4423BD2DD
:10413000F74241D2640D43D07F0D38D0E41BC90251
:10414000DB0229432B43CF0ADB0A0600B61A9F4144
:1041500004D2641EB6197F41B6185F416812800D03
:1041600024180018844222DAE80C0021B6197F4195
:10417000B61A9F4102D2B6185F413F1C40414941E7
:10418000F4D3241C21DD2405B6197F41B61A9F41C2
:1041900005D33743C60737430026012F70416141DD
:1041A00066463143F0BC7047FCD1F74205D200208F
:1041B000C14349054908F3E704D00020C143F1E7B2
:1041C0007F0DFAD000206146ECE72442FAD1401C72
:1041D00061410F03F6D30020E2E7F0B40125ED07BB
:1041E0000F005F404FD48B4200D1824205D98446F4
:1041F000100062468C4619006346DF184C18640DA7
:104200007F0D3AD0661C760537D0E61B352E34DCA0
:10421000DB022B43DB0A0C0DC9022943C912202EF5
:104220000DDB1700203E06D01F00F741F3405F4032
:104230000026012A7741C01871410DD217E01700FE
:10424000F741F2405740F3415A40B340F3405A40DF
:104250000026801859410AD3A21C52050FD0C2076C
:10426000012F724117004008CB0718434908641C0E
:1042700024054208AF4170416141F0BC7047641CA5
:1042800021050020F9E76B4010E06B40ABE7F742F7
:10429000F3D1E943F1E72442EFD100200021ECE71C
:1042A000F0B40125ED070F005F40EED40C00871A33
:1042B0009C4105D2C01BA141D219634169406B40AA
:1042C000AE0ADF184C18F442E1D2640D7F0DE2D043
:1042D000E61B362ED1DCDB022B43DB0AA4460C0D99
:1042E000C9022943C90A012E28DC04D1D607520885
:1042F000DF073A435B08EF0A76429041994114D0B8
:1043000039423BD1B61940414941761C394204D16A
:10431000761C001849413942FAD0B9436746B74282
:1043200008D9A41B24052143A7E70042EAD136425D
:10433000E8D1A2E7E40AE10700209EE7202E0BDD8A
:10434000203E1F00F340F7415F40012A0022574101
:104350007E42984191410BE01700F741F2405740EF
:10436000F3415A40B340F3405A407E429041994154
:104370000A0303D2641EB619404149410027641E56
:1043800024054208AE4178416141F0BC70470122EA
:1043900052054B18DA4201D9581570475B0D0722B8
:1043A000D2019B1A10D9FF2B1DD2DB050122D207A7
:1043B0000A4013430903020D1143490AC200524146
:1043C00000D9491CC81870470AD1800A0A03024361
:1043D0005212921C04D9D3070B40D00518437047E2
:1043E000C80FC0077047C80F0002FF30C0057047F4
:1043F000F8B504000D008848210000F02CF90600F3
:10440000700040089E21C90500F006FC46D2FC2041
:104410008005410049088022120630001040084300
:10442000310000F0DAF900F0BBF9060033D000F0FB
:1044300017FCE221890500F00EF9070077483900E2
:1044400000F009F90100200000F0FFF904007448B1
:10445000390000F000F90100200000F0F6F9040036
:104460007048390000F0F7F80100200000F0EDF985
:1044700004006D48390000F0EEF80100200000F063
:10448000E4F904006948390000F0E5F80100200073
:1044900000F0DBF90400B007800F6BE0600000164D
:1044A000401C08D160000116491C02D1000200D056
:1044B000AFE05F48F2BD600005D1002D00D1A8E05B
:1044C000FE24A405A5E03100FC208005420052082E
:1044D00080231B0608001840104300F07EF94100BD
:1044E0000DD09622090E511A182904DB06008020EF
:1044F0000006064004E0002901DDC84088400600AF
:10450000700032D0E2208005310000F0A4F80700EE
:104510004248390000F09FF80100200000F095F9B2
:1045200004003F48390000F096F80100200000F038
:104530008CF904003B48390000F08DF801002000A0
:1045400000F083F904003848390000F084F80100D5
:10455000200000F07AF904003448390000F07BF8BC
:104560000100200000F071F90400300000F018F99B
:104570008007800F2E186000400802D580210906B0
:10458000081AE621890502D580221206511AF5077C
:10459000ED0F884204DA002D36D0FE24A40533E066
:1045A0002000210000F057F80700002D12D021480C
:1045B000390000F050F8204900F00FF9390000F000
:1045C0004AF81E4900F009F9390000F044F8FE21CC
:1045D000890516E02000390000F03DF80500184874
:1045E000390000F038F80100164800F0F6F83900FC
:1045F00000F031F8144900F0F0F8290000F02BF831
:10460000210000F0EAF80400B00702D5802000067F
:1046100044402000F2BD000083F9223F0000C9465B
:1046200000A0FD400020A23A000034330030C22E2A
:10463000FFFFFF7F9349B2BA36A02A3DDFFFFFBEDE
:104640006E8C4CB94283083CA1AA2ABE80B50021D9
:10465000FFF7CEFE02BD30B405004D400122D20767
:1046600015404B180418240E2ED01B0E32D0FF2CF0
:1046700034D0FF2B3AD0E418000209021043114352
:10468000000A090A9446C2B24A43000AC3B24B4325
:10469000000A4843110A5B181A43D2B2190A0918D2
:1046A00001D44918641E080A7F3C23DBFE2C08DA7B
:1046B000E40509061143634699416041284330BC33
:1046C0007047FF20C005F9E728001B0EFF2BF6D12D
:1046D000D043F4E72800FF2CF1D1F9E74002F7D1ED
:1046E000FF2B01D14902F3D1E005E7E7D8054902E4
:1046F000E4D0EDE743020020641CDFD15B129B1C79
:10470000DCD9D805DAE7FEE741000916491C00D1DB
:10471000704780B541000CD09522090E511A182916
:1047200003DB80210906084003E0002901DDC840C1
:10473000884001004A000CD09623120E9A1A182ABB
:1047400003DB80221206114003E0002A01DDD14084
:104750009140020002D580231B069A1A002902D537
:1047600080231B06591A8A4216D041000CD096228B
:10477000090E511A182903DB80210906084003E0BD
:10478000002901DDC8408840C10F01D0034901E084
:10479000FE21890500F021F802BD00BF000080BFA6
:1047A0000122D2070118090E7F3910D449421F3166
:1047B0000FD4001805D2C0011043C84000D5D04323
:1047C0007047C0011043C84005D4404270470020E4
:1047D00070470042F3D5100070470122D207030052
:1047E0004B402ED4431A01D2C01AC91830B44B180A
:1047F0000418240E1B0E22D0FF2C20D0E31A182BF5
:104800001DDC09021143C40D641E000210439446CE
:104810001925ED1A0A00AA40D940451801D36D08A0
:10482000A41CE405D209280A2D062A436546AA419C
:10483000604103181B0EFF2B01D3C00DC00530BC17
:104840007047514006E05140CCE70122D2070300F7
:104850004B40F8D4431A03D2C01AC91850405140F3
:1048600030B44B18090211430418240E1B0E40D01B
:10487000FF2C3AD025009D410BD31ED8C50D400218
:10488000401A0BD3ED050100400AC905914168416A
:10489000D5E7C50D40024918401AD0D00121400883
:1048A000491C0018FCD58C4204D36D1A000AED0592
:1048B0004019C4E7E8051040C1E7182DBFDCAC1C67
:1048C0000D00E140E5414D40012D4941C40D00027C
:1048D0001043451A01D46D199543641EE405280A56
:1048E0002D069541604130BC7047FF2BA7D1D843BE
:1048F000A5E72442A3D10020A1E7FEE7012212068A
:104900000118CA420AD28A420DD838221206090971
:104910008918C20FD20711434007704700D04908D9
:104920000909014301E0C10FC90700207047FEE7F4
:1049300010B5040001D1012010BD022021216054D6
:1049400020680168114A0A4061681143A2680A435D
:10495000E168114322690A4361691143A2690A436C
:10496000E169114301602068094940181421FEF7EC
:1049700075FF800020640748E0630020A0630121E8
:104980002122A1542021605410BD00000FC0FFFF60
:10499000F8FFFDBF00000240F2B4002500212024F2
:1049A000045D012C01D102202AE001242027C455F6
:1049B00002262127C75D012F1ED12127C6558563F9
:1049C00005682E68A6432E60056C0126AE40C56BB7
:1049D0006E6005686B60009B4568102D056803D10B
:1049E000AA600268D36002E0AB600368DA60006826
:1049F00002681443046002E02021455402210800AB
:104A0000F2BC7047F2B4002500212024045D012C83
:104A100001D102203BE001242027C4550226212792
:104A2000C75D012F2FD12127C655856305682E68E4
:104A3000A6432E60056C0126AE40C56B6E6005680E
:104A40006B60009B4568102D056803D1AA60026861
:104A5000D36002E0AB600368DA600268C36A002BCF
:104A6000136803D00E251D43156007E00A251D437A
:104A70001560026813680425AB4313600068026880
:104A80001443046002E02021455402210800F2BCD6
:104A9000704770B5C16B096802681368046C04251F
:104AA0000426A6400E4010D02B420ED01168890675
:104AB00002D41168A9431160016C8D40C16B4D6037
:104AC000C16A002939D0884770BD02250226A64058
:104AD0000E4017D02B4215D01168890606D41168F4
:104AE0000A2399431160012121228154016C8D40D8
:104AF000C16B4D60002120228154816A00291CD0A5
:104B0000884770BD08250826A6400E4015D01D40D8
:104B100013D011680E23994311600121026C012307
:104B20009340C26B53608163212281540021202273
:104B30008154016B002900D0884770BD0004844671
:104B40000B4909681023400000D348405B1EFAD18E
:104B5000000C604470470CC80CC10CC80CC10CC8D8
:104B60000CC10CC80CC10CC80CC10CC80CC17047DE
:104B70000000002038B505000D4CFA208000217897
:104B8000FEF76CFE01000B480068FEF767FEFDF7BC
:104B900092FC00280AD1042D08D20022290000200E
:104BA000C043FDF77BFCA560002032BD012032BD73
:104BB00098010020A40100201206130A1A43130CC6
:104BC0001A4300BF094205D0830705D00270401C7C
:104BD000491EF9D1704700001300103906D330B4D4
:104BE0001400150010393CC0FCD230BC490700D37A
:104BF0000CC000D504C0890002D30280801C0029AB
:104C000000D5027070477047704770477047704713
:104C1000704770477047FEE70CB401221206031874
:104C2000DA4207D84B18DA4204D802000A43921835
:104C300002D288420CBC7047FCD08142FAE7FEE702
:104C40009D2102000AD002D4491E9218FCD5C90544
:104C5000100A1206524100D3012A48417047000051
:104C60009D210200EED55242F446FFF7EBFF0122F0
:104C7000D2071043604770B40123002413E0016899
:104C8000001D194202D04D466D1E49190C60091DC8
:104C9000121F042AFAD20D00960701D50C80AD1C14
:104CA0001A4000D02C700268001D002AE7D170BCA9
:104CB000704730B501684118446862088A188368F3
:104CC000E40704D54C461B1901E0641C06D191424F
:104CD0000BD00C7864B2491C0D78491C1D705B1C0C
:104CE000002CF2D4641EF7D5F1E70C3030BDFEE79E
:104CF000704780B5FDF757F9FEE77047704780B5FC
:104D000000F00EF801BD80B50348FFF7C2FE03486E
:104D1000FFF7BFFE01BD0000D80200209402002072
:104D20000248416802788918416070479801002064
:104D300010B5074979441831064C7C44163404E018
:104D4000081D0A68891888470100A142F8D110BDE2
:104D500008000000240000001FFFFFFF8C0100007E
:104D6000C4010020000000004BFFFFFF9A0000007C
:104D7000580000000000002000F00DF8002801D0CD
:104D8000FFF7D6FF00BF00BF002000BF00BFFCF749
:104D90002DFE00F002F80120704780B500F002F807
:104DA00001BDFEE70746384600F002F8FBE7FEE7E4
:104DB00080B500BF00BF024A11001820ABBEFBE760
:104DC0002600020070470000000000000000000004
:104DD000010203040607080901488047014800470B
:104DE000C54D0008E94D000800BF00BF00BF00BF6F
:104DF000FFF7C2FFFEE7FEE7FEE7FEE7FEE7FEE79E
:104E0000FEE7FEE7FEE7050000406E010181009D20
:104E1000000001B500021100339F000001F90000FD
:104E200004FC0001127AEF00082001010001297C36
:024E3000000080
:0400000508004DE9B9
:00000001FF
